:020000040800F2
:1000000040700020450100084D010008AB67000862
:1000100051010008530100085501000800000000CC
:100020000000000000000000000000005701000870
:100030005901000800000000336700081F1C000879
:100040005F0100085F0100085F0100085F01000810
:100050005F0100085F0100085F0100085F01000800
:100060005F0100085F0100085F0100085F010008F0
:100070005F0100085F0100085F0100085F010008E0
:100080005F0100085F0100085F0100085F010008D0
:100090005F0100085F0100085F0100085F010008C0
:1000A0005F0100085F0100085F0100085F010008B0
:1000B0005F0100085F0100085F0100085F010008A0
:1000C0005F0100085F0100085F0100085F01000890
:1000D0005F01000893200008912B00084798000852
:1000E0005F0100085F0100085F0100085F01000870
:1000F0005F0100085F0100085F0100085F01000860
:100100005F0100085F0100085F0100085F0100084F
:100110005F0100085F0100085F010008FD2A000878
:100120005F0100085F0100085F0100085F0100082F
:10013000DFF80CD00DF064FB00480047C544000810
:10014000407000200648804706480047FEE7FEE76B
:10015000FEE7FEE7FEE7FEE7FEE7FEE7FEE7FEE777
:1001600011020008310100080CB500220192009232
:100170005248016841F4803101604FF4A063016886
:1001800001F4003100910199491C0191009911B9C4
:1001900001999942F3D10168890302D501210091A7
:1001A00000E000920099012930D145490A6842F0E7
:1001B00010020A600A6822F003020A600A6842F02C
:1001C00002020A604168416041684160416841F44F
:1001D00080614160416821F47C114160416841F4D3
:1001E000E8114160016841F0807101600168890196
:1001F000FCD5416821F003014160416841F00201F2
:1002000041604168C1F381010229FAD10CBDABE71D
:1002100010B52A48016841F0010101604168294A8E
:10022000114041600168284A11400160016821F4D1
:1002300080210160416821F4FE0141604FF41F01FB
:100240008160FFF7E4FF21494FF00060086010BDB6
:1002500010B51A4A506800F00C011D4B1D480029CA
:100260000ED004290ED008290ED003605168194A17
:10027000C1F30311121D515C0268CA40026010BD37
:100280000360F3E70360F1E7516801F4701153680C
:1002900003F48033022404EB914133B153689B0390
:1002A00007D50D4B59430160E0E70B4B5943016003
:1002B000DCE7074B59430160D8E70000001002401B
:1002C000002002400000FFF8FFFFF6FE08ED00E00E
:1002D00000127A000000002000093D002A4908436E
:1002E0002A490860704770B50F23C278012601784B
:1002F000002A1ED0254A126802F4E062C2F5E062CC
:10030000120AC2F10404D3404578A54082781A400D
:100310002A43120101F1E02181F80024007800F065
:100320001F018E404009800000F1E020C0F800610C
:1003300070BD01F01F0086404809800000F1E020F8
:10034000C0F8806170BD124A114001430F48001F80
:10035000016070470D4A121D002903D01168014346
:100360001160704711688143116070474FF0E021C0
:10037000042804D0086920F0040008617047086967
:1003800040F00400086170470000FA050CED00E041
:1003900080FFFF1F10B59C49884209D1012104202C
:1003A00000F07DFA0021BDE81040042000F077BA8B
:1003B0009649884209D10121082000F070FA0021F5
:1003C000BDE81040082000F06ABA9149884209D17E
:1003D0000121102000F063FA0021BDE81040102038
:1003E00000F05DBA8B49884209D10121202000F03C
:1003F00056FA0021BDE81040202000F050BA86498E
:10040000884209D10121402000F049FA0021BDE8CD
:100410001040402000F043BA8049884209D10121B0
:10042000802000F03CFA0021BDE81040802000F060
:1004300036BA7B4988420AD184150121204600F052
:100440002EFA2046BDE81040002100F028BA10BD69
:1004500010B50121084600F022FA0021BDE8104045
:10046000012000F01CBA2DE9F0410022CC7804F004
:100470000F03E40601D58C7823430C784FF00F0767
:1004800014F0FF0F4FF0010C1CD005680CFA02F4B9
:100490000E882640A64211D1960007FA06F825EAF2
:1004A000080503FA06F848EA0505CE78282E02D09A
:1004B000482E02D002E0446100E00461521C082A88
:1004C000E4D305600A88FF2A1ED94568002202F19C
:1004D00008060CFA06F40E882640A64210D19600B3
:1004E00007FA06F825EA080503FA06F848EA0505BA
:1004F000CE78282E00D14461CE78482E00D10461F8
:10050000521C082AE3D34560BDE8F0814FF6FF7125
:100510000180022181700421C170704702460020D1
:1005200092680A4200D001207047806880B270470C
:1005300002460020D2680A4200D001207047C068FD
:1005400080B270470161704741617047002A01D055
:100550000161704741617047C160704741F480326A
:1005600082618161826181698069704710B52D4B1C
:100570001A684FF68074224042EA0010084318605F
:1005800010BD2949C8617047F0B5264C002801DA32
:10059000E36900E06368C0F30346420D120185B2CF
:1005A000C0F301579540032F07D0C2020CD5032298
:1005B000B240934343F0706209E023F070626368D5
:1005C00023F07063636002E0AB4343F0706201B1FB
:1005D0002A43002801DAE261F0BD6260F0BD10B587
:1005E0008A07120F0F23934021F003040D49214481
:1005F0008C689C438C608B68904003438B6010BD7B
:100600000949DC310860704700080140000C0140D6
:10061000001001400014014000180140001C01407E
:10062000002001400000014000002042B448016861
:1006300041F0010101604168B24A11404160016826
:10064000B14A11400160016821F4802101604168D4
:1006500021F4FE0141604FF41F0181607047A849F9
:100660000A6822F480320A600A6822F480220A6052
:10067000B0F5803F07D0B0F5802F03D1086840F473
:10068000A02008607047086840F480300860704718
:100690000346002059099A4A01290AD002290AD0A2
:1006A000516A03F01F02012393400B4200D0012046
:1006B00070471168F5E7116AF3E718B5002000905C
:1006C0004FF4A0643120FFF7E3FF0099491C00912B
:1006D0000099A14201D00028F4D03120FFF7D8FFC3
:1006E00008B1012018BD002018BD854A116821F00D
:1006F000F80141EAC0001060704784490860704703
:100700007F4B5A6822F47C120843104358607047AC
:100710007E49086670477A4A516821F00301014317
:10072000516070477648406800F00C007047744A8A
:10073000516821F0F001014351607047704A5168DF
:1007400021F4E0610143516070476D4A516821F422
:10075000605141EAC00050607047694A002903D0E7
:10076000517A014351727047517A814351727047F7
:100770006649D83108607047614A516821F44041A8
:100780000143516070475E49002220310A7001F830
:100790002029012805D0042802D1052081F8200055
:1007A0007047012081F82000704759490860704760
:1007B00053490A6A02430A6270475549443908603E
:1007C000704710B54E4A516801F00C01514B002999
:1007D00027D0042927D0082927D00360516801F0C9
:1007E000F00109094C4B5C5C0168E14041605468D0
:1007F00004F4E064240A1C5D21FA04F48460546863
:1008000004F46054E40A1B5DD940C160526802F4EC
:100810004042920B404B1B1F9A5CB1FBF2F101610D
:1008200010BD0360DAE70360D8E7516801F4701186
:10083000536803F48033022404EB914133B15368CD
:100840009B0307D5354B59430160C7E7334B5943E9
:100850000160C3E72F4B59430160BFE7284A0029D5
:1008600003D051690143516170475169814351611E
:100870007047234A002903D0916901439161704771
:1008800091698143916170471D4A002903D0D16964
:100890000143D1617047D1698143D1617047184AE2
:1008A000002903D0D1680143D1607047D1688143EA
:1008B000D1607047124A002903D0116901431161C8
:1008C00070471169814311617047114940390860CF
:1008D00070470E49C86470470949C8717047084895
:1008E000416A41F080714162704701460020044A2C
:1008F00092680A4200D0012070470149887270470F
:10090000001002400000FFF8FFFFF6FE0000424228
:100910008004424200127A001800002000093D00C5
:1009200010B5A94988420AD1841401212046FFF755
:10093000B6FF2046BDE810400021FFF7B0BFA34935
:1009400088420AD1041401212046FFF7B3FF204654
:10095000BDE810400021FFF7ADBF9D4988420AD194
:10096000C41301212046FFF7A5FF2046BDE8104033
:100970000021FFF79FBF10BD30B5028802F441533C
:100980000A884C88CD8822438C882C4322430C89CA
:1009900022434C8922438C892243CC8922431A4327
:1009A0000280828B22F400628283098A018230BD38
:1009B000F0B585B005460C46022000210126AA8B21
:1009C0004FF240031A40AA8302222A84AF8BA26806
:1009D000022A21D0A08800B102266846FFF7F1FE66
:1009E0000098E188B1F5007F2CD07101B0FBF1F0E7
:1009F00000EB8000A1684000B0FBF1F0401D80B228
:100A00000A21B0FBF1F000F00101401AC0F34F00E1
:100A10004FF6FF7202EA0121821EFE2A01D3022054
:100A20000021E288084302432A8420886188A28941
:100A30000843A18811430843384340F40060A88369
:100A400005B0F0BD000A00EB8000A1684000B0FBDB
:100A5000F1F0401D80B2D3E7002101804180818008
:100A6000C180018141818181C1810721018270475B
:100A70000021018041808180C180022282608181C9
:100A80007047002904D0018841F04001018070477F
:100A9000018821F0400101807047002904D0818B3A
:100AA00041F4806181837047818B21F4806181836F
:100AB0007047090901238B4099B2002A03D082882C
:100AC0000A438280704782888A4382807047002A66
:100AD00003D082880A438280704782888A4382805A
:100AE00070478181704780897047A1F57E42FF3A47
:100AF00004D0018841F4807101807047018821F49D
:100B0000807101807047002904D0818841F0040180
:100B100081807047818821F00401818070470288BC
:100B200022F40062028002880A4302807047018832
:100B300041F4805101807047002904D0018841F4BC
:100B4000005101807047018821F4005101807047F5
:100B5000012901D0008B7047808A7047008A704756
:100B6000B1F5804F04D0018821F4804101807047A5
:100B7000018841F4804101807047024600201289BB
:100B80000A4200D001207047C9430181704730B547
:100B90000246002001F00F03012505FA03F4A3B279
:100BA000090905FA01F4A4B29188214012891A4278
:100BB00002D0002900D0012030BD01F00F02012138
:100BC0009140C94301817047003001400038004026
:100BD000003C004010B5FE4988420AD1C4140121EE
:100BE0002046FFF75CFE2046BDE810400021FFF7DD
:100BF00056BEB0F1804F0CD0F649884213D1012186
:100C00000220FFF757FE0021BDE810400220FFF749
:100C100051BE01210846FFF74DFE0021BDE81040FE
:100C20000120FFF747BEEC49884209D10121042089
:100C3000FFF740FE0021BDE810400420FFF73ABE58
:100C4000E649884209D101210820FFF733FE00213F
:100C5000BDE810400820FFF72DBEE149884209D1C8
:100C600001211020FFF726FE0021BDE810401020D2
:100C7000FFF720BEDB49884209D101212020FFF780
:100C800019FE0021BDE810402020FFF713BED64911
:100C900088420AD1441401212046FFF700FE204675
:100CA000BDE810400021FFF7FABDD04988420AD1C3
:100CB0000121CC042046FFF7F2FD2046BDE810409C
:100CC0000021FFF7ECBDCA4988420AD101210C0579
:100CD0002046FFF7E4FD2046BDE810400021FFF765
:100CE000DEBDC44988420AD101214C052046FFF7E8
:100CF000D6FD2046BDE810400021FFF7D0BDBE491B
:100D0000884209D101214020FFF7D4FD0021BDE830
:100D100010404020FFF7CEBDB849884209D10121DB
:100D20008020FFF7C7FD0021BDE810408020FFF7BD
:100D3000C1BDB34988420AD1841501212046FFF77D
:100D4000B9FD2046BDE810400021FFF7B3BDAD4915
:100D500088420AD101210C042046FFF7A0FD20465D
:100D6000BDE810400021FFF79ABDA74988420AD18B
:100D700001214C042046FFF792FD2046BDE81040BB
:100D80000021FFF78CBDA14988420AD101218C04C2
:100D90002046FFF784FD2046BDE810400021FFF704
:100DA0007EBD10BD30B50288894C8F4DA0420DD05C
:100DB000A8420BD0B0F1804F08D0864B984205D0A6
:100DC000854B984202D0854B984203D122F07003A4
:100DD0004A881A43824B984206D0824B984203D0ED
:100DE00022F44073CA881A4302808A8882850A885E
:100DF0000285A0420AD0A84208D0824A904205D07B
:100E0000814A904202D0814A904201D1097A0186FA
:100E10000121818230BD30B5028C22F001020284B2
:100E2000028C8388048B24F0700424F003050C8862
:100E30002C4322F002020D8915434A882A43644D4F
:100E4000A8420BD0684DA84208D06E4DA84205D0EC
:100E50006D4DA84202D06D4DA8420FD122F0080579
:100E60004A892A4322F004058A882A4323F480739E
:100E700023F400738D891D43CB892B438380048326
:100E8000C9888186028430BD70B5028C22F01002C0
:100E90000284028C8388048B24F4E04424F440769A
:100EA0000D884FF6FF7404EA0525354322F0200231
:100EB0000E8904EA061616434A8804EA02123243EF
:100EC000434EB04202D0484EB04217D122F08002C9
:100ED0004E8904EA0616164326F040068A8804EA7C
:100EE0000212324323F4806323F400638E8904EA00
:100EF00086061E43CB8904EA83033343838005833C
:100F0000C9880187028470BD70B5028C22F480729A
:100F10000284028C8388848B24F0700424F0030400
:100F20000D88254322F400720E894FF6FF7404EAFF
:100F3000062616434A8804EA02223243244EB0426F
:100F400002D0294EB04217D122F400664A8904EA41
:100F50000222324322F480668A8804EA0222324363
:100F600023F4805323F400538E8904EA06161E43AB
:100F7000CB8904EA0313334383808583C98881873F
:100F8000028470BD70B5028C22F480520284058CFC
:100F90008288838B23F4E04323F440760C884FF659
:100FA000FF7303EA0424344325F400550E8903EA51
:100FB00006362E434D8803EA05353543044EB042CC
:100FC00002D0094EB04226D122F480468A891FE021
:100FD000002C01400004004000080040000C0040CC
:100FE000001000400014004000340140004C01405B
:100FF000005001400054014000180040001C004017
:1010000000200040004001400044014000480140F1
:1010100003EA8212324382808483C988A0F8401098
:10102000058470BD828B22F440628283828B4FF6EE
:10103000FF7303EA01210A4382837047F0B5048CF1
:1010400024F480540484868B048C4FF6FF7505EAE3
:10105000013726F4734605EA0222324305EA0333D8
:101060001343F74A90420ED0F64A90420BD0B0F1AB
:10107000804F08D0F44A904205D0F44A904202D002
:10108000F34A904205D124F40051394341F4805190
:1010900004E024F402420A4342F480518383018431
:1010A000F0BD828B22F00C028283828B0A43828302
:1010B0007047F0B5048C24F480740484858B048C10
:1010C0004FF6FF7707EA012625F0F30507EA031339
:1010D00013432B43DA4A90420ED0DA4A90420BD0A7
:1010E000B0F1804F08D0D84A904205D0D74A9042FC
:1010F00002D0D74A904205D124F40071314341F423
:10110000807104E024F420620A4342F480718383F6
:101110000184F0BD028B22F440620283028B4FF601
:10112000FF7303EA01210A4302837047F0B5048C80
:1011300024F010040484068B048C4FF6FF7505EA36
:10114000011726F4734605EA0333334305EA022206
:101150001A43BB4B98420ED0BA4B98420BD0B0F119
:10116000804F08D0B84B984205D0B84B984202D077
:10117000B74B984205D124F02001394341F01001CA
:1011800004E024F0A0030B4343F010010283018428
:10119000F0BD028B22F00C020283028B0A43028311
:1011A000704770B5048C24F001040484058B048C12
:1011B00025F0F3054FF6FF7606EA031313432B439E
:1011C0009F4A90420ED09F4A90420BD0B0F1804F80
:1011D00008D09D4A904205D09C4A904202D09C4A39
:1011E000904205D124F002020A4342F0010104E0DA
:1011F00024F00A020A4342F001010383018470BD16
:1012000070B505460C468E48854209D08D4885420A
:1012100006D0B5F1804F03D08B48854200D08B4873
:1012200020886188A288238958B1042811D0082811
:1012300017D02846FFF702FFE1882846BDE8704036
:10124000F0E62846FFF7ADFFE1882846BDE870408C
:101250009FE72846FFF76AFFE1882846BDE870400F
:1012600058E72846FFF725FFE1882846BDE870408B
:1012700017E72DE9F04107460C4600250126618855
:10128000002900D10225A288012A00D10226208847
:10129000238988B13846FFF749FFE1883846FFF7D0
:1012A00039FF2389324629463846FFF77AFFE1881D
:1012B0003846BDE8F0416CE73846FFF772FFE18839
:1012C0003846FFF766FF2389324629463846FFF73E
:1012D0002DFFE1883846BDE8F0411BE710B50A88CC
:1012E0004B88CC881A438B8823431A430B891A43B3
:1012F0004B8989891A430A43A0F8442010BD4FF650
:10130000FF71818000210180C1804180017270479E
:101310000021018041808180C180018141818181E2
:10132000C181704700210180418001228280C180FB
:10133000018170470021018041808180C18001814D
:10134000418181817047002904D0018841F0010169
:1013500001807047018821F0010101807047002958
:1013600005D030F8441F41F400410180704730F847
:10137000441FC1F30E0101807047002A03D0828907
:101380000A438281704782898A43828170478182C1
:1013900070471143A0F848107047002A03D0828993
:1013A0000A438281704782898A438281704701891A
:1013B00021F0070101817047028922F070020A437F
:1013C0000281704700B503461846FFF7F5FF1889FC
:1013D00040F00700188100BD70B50D460446114667
:1013E000602D0CD001222046FFF7DBFE2946204667
:1013F000FFF7E2FF208940F00700208170BD012245
:101400002046FFF793FEF1E730B50489E4B24FF6CA
:10141000FF7505EA032313430B432343038130BDC8
:1014200010B504462046FFF7EFFF208920F00700A3
:1014300040F0070020F0700040F07000208110BDE7
:10144000002C01400034014000040040000800402E
:10145000000C004010B504462046FFF7D5FF208958
:1014600040F480402081EAE701858282704702884B
:1014700022F070020A430280704770B50589048B20
:10148000068C25F007050D434FF6FC410C4040F259
:1014900001110C4326F022064FF6FF7101EA0311F9
:1014A0001143314305810483018470BD028B22F016
:1014B00070020A4302837047028B22F4E0424FF627
:1014C000FF7303EA0121114301837047828B22F0ED
:1014D00070020A4382837047828B22F4E0424FF607
:1014E000FF7303EA0121114381837047002904D06F
:1014F000018841F0800101807047018821F080015E
:1015000001807047002904D0818841F00401818066
:101510007047818821F0040181807047002904D040
:10152000818841F0080181807047818821F008019D
:1015300081807047002904D0818841F001018180B9
:101540007047818821F0010181807047028B22F071
:1015500008020A4302837047028B22F400624FF6AE
:10156000FF7303EA0121114301837047828B22F04C
:1015700008020A4382837047828B22F400624FF68E
:10158000FF7303EA0121114381837047028B22F02C
:1015900004020A4302837047028B22F480624FF6F2
:1015A000FF7303EA0121114301837047828B22F00C
:1015B00004020A4382837047828B22F480624FF6D2
:1015C000FF7303EA0121114381837047028B22F0EC
:1015D00080020A4302837047028BC2F30E024FF669
:1015E000FF7303EA0121114301837047828B22F0CC
:1015F00080020A4382837047828BC2F30E024FF649
:10160000FF7303EA0121114381837047028C22F0AA
:1016100002020A4302847047028C22F008020A4345
:1016200002847047028C22F020024FF6FF7303EA17
:101630000111114301847047028C22F080024FF6A1
:10164000FF7303EA0111114301847047028C22F4F5
:1016500000724FF6FF7303EA0121114301847047C2
:10166000028C22F400624FF6FF7303EA012111435A
:1016700001847047028C22F400524FF6FF7303EA94
:10168000013111430184704710B501238B40048C54
:101690009C430484038C8A4013430384CFE610B533
:1016A00004238B40048C9C430484038C8A401343A2
:1016B0000384C4E630B500F1180301248C40058C86
:1016C000A5430584002911D008290FD0091FC1F3B3
:1016D0004E001844016821F4E041016001684FF6B2
:1016E000FF7303EA02221143016030BD03EB510096
:1016F000016821F07001016001681143016030BD93
:10170000002904D0018841F002010180704701885E
:1017100021F0020101807047002904D0018841F0C6
:10172000040101807047018821F0040101807047A5
:10173000002904D0818841F0800181807047818830
:1017400021F0800181807047028822F00802028027
:1017500002880A4302807047828822F070028280E9
:1017600082880A4382807047028922F00702028140
:1017700002890A4302817047028922F080020281B5
:1017800002890A43028170478184704781857047CE
:10179000818670470187704781877047A0F84010A5
:1017A0007047028822F44072028002880A43028055
:1017B0007047808E7047008F7047808F7047B0F8F9
:1017C00040007047808C7047008D704702460020B3
:1017D000128A0A4200D001207047C9430182704733
:1017E00002460020138A0B4092890A40002B02D047
:1017F000002A00D001207047C943018270470000D1
:1018000010B5E14988420AD101218C032046FFF737
:1018100046F82046BDE810400021FFF740B8DB49FC
:1018200088420AD101214C042046FFF743F82046A4
:10183000BDE810400021FFF73DB8D54988420AD1E4
:1018400001218C042046FFF735F82046BDE8104002
:101850000021FFF72FB8CF4988420AD10121CC04DB
:101860002046FFF727F82046BDE810400021FFF78B
:1018700021B8C94988420AD101210C052046FFF749
:1018800019F82046BDE810400021FFF713B810BD3D
:1018900030B585B004460D46208A4CF6FF710840ED
:1018A000E98801432182A0894EF6F3110840A988F6
:1018B0002A8911436A8902431143A181A08A4FF604
:1018C000FF410840A9890143A1826846FEF779FFDC
:1018D000AD48844201D1039800E00298A18909042F
:1018E00008D500EBC00101EB001029684900B0FBEE
:1018F000F1F007E000EBC00101EB0010296889005E
:10190000B0FBF1F06422B0FBF2F109010B096FF0BA
:1019100018056B4300EB8300A3891D044FF03203CD
:1019200007D503EBC000B0FBF2F000F0070008435E
:1019300006E003EB0010B0FBF2F000F00F000843EC
:10194000208105B030BD4FF4165101600021818027
:10195000C18001810C2242818181704710B5038AC8
:101960004FF2FF0213400A884C8822438C88C988B2
:101970000C4322431A43028210BD002101804180A2
:101980008180C1807047002904D0818941F40051D1
:1019900081817047818921F400518181704710B5A0
:1019A00040F66A13C1F3421301F01F040121A14064
:1019B000012B07D0022B07D014303AB102680A433A
:1019C000026010BD0C30F8E71030F6E702688A4379
:1019D000026010BD002A03D0828A0A4382827047C7
:1019E000828A8A4382827047028A22F00F02028230
:1019F000028A0A4302827047828922F4006282814D
:101A000082890A4382817047002904D0818941F08C
:101A1000020181817047818921F002018181704733
:101A2000028A22F020020282028A0A43028270475E
:101A3000002904D0018A41F4804101827047018A63
:101A400021F4804101827047C1F308018180704711
:101A50008088C0F308007047818941F001018181CD
:101A60007047028BD2B20283028B42EA01210183CA
:101A70007047028B02F47F420283028B0A43028387
:101A80007047002904D0818A41F02001818270478B
:101A9000818A21F0200181827047002904D0818A47
:101AA00041F0100181827047818A21F0100181820A
:101AB0007047002904D0818A41F008018182704773
:101AC000818A21F0080181827047002904D0818930
:101AD00041F40041818170478189C1F30E01818108
:101AE0007047002904D0818A41F4006181827047E7
:101AF000818A21F4006181827047828A22F0040287
:101B00008282828A0A4382827047002904D0818AB5
:101B100041F0020181827047818A21F002018182B5
:101B200070470246002012880A4200D00120704708
:101B30008A05C9430180704770B5002440F66A12D7
:101B4000C1F3421301F01F05012606FA05F2012B2D
:101B50000CD0022B0DD0838A1340090A8E400088D6
:101B600030400BB100B10124204670BD8389134081
:101B7000F3E7038A1340F0E740F66A120A0A0121EC
:101B80009140C94301807047003801400044004043
:101B900000480040004C004000500040374870476B
:101BA0003748704710B537484FF47A710068B0FB7A
:101BB000F1F0B0F1807F0CD220F07F414FF0E020B7
:101BC000491E4161304AF0211170002181610721D5
:101BD000016100F06BF900F0ACF900F091FA01F04E
:101BE000D9F800F06FFF07F0C0FB07F05BFB4FF484
:101BF000A060FEF773FB01F081F84FF4614000F044
:101C0000F2FF00F091FA02F01DFCFFF7C9FF044655
:101C1000FFF7C4FF2146BDE8104003F0D3BE10B566
:101C200003F0C4FA02F0E0FBBDE8104003F0C9BACB
:101C300070B5044604F0D6F9144D17E00A2809D10E
:101C40000D212846FFF700FF80212846FFF769FF96
:101C50000028F9D014F9010B81B22846FFF7F4FEF1
:101C600080212846FFF75DFF0028F9D094F9000095
:101C70000028E3D1BDE8704004F0BFB9DC120020B9
:101C8000DC2200200000002023ED00E000380140AD
:101C900001F069FB02F05EFA07F01DFF364C374D8C
:101CA00001F030F981B22180642911D034A003F011
:101CB00080FD20880C2801D101F018FB20880B281A
:101CC00001D101F07DFD20880D2801D101F02CFE0D
:101CD000D5F818010028E3D001F06EFAE0E71CB552
:101CE0002AA003F066FD00220A2130A002F05FFF67
:101CF0003049086018B130A003F05BFD02E036A067
:101D000003F057FD00230A2202213BA003F0E2F872
:101D10003B49086018B13BA003F04BFD02E041A035
:101D200003F047FD02201424CDE900040302002241
:101D3000444945A004F062FA44490860A0B104F0A7
:101D400028FA0320CDE900044FF4806300224049C3
:101D500040A004F053FA4249086040B104F019FA77
:101D600040A003F026FD05E04FF0FF301CBD46A06B
:101D700003F01FFD00201CBD3C000020008021421C
:101D80006E756D3D25640A0A000000000A0ABBF961
:101D9000D3DAB0B2D7BFCAD6BBFAB5C4D6C7C4DC93
:101DA000C3C5CBF8C9E8BCC60A0A000047345F6D5A
:101DB00061696C00841200200D0A47345F6D61690F
:101DC0006C20CFFBCFA2D3CACFE4B4B4BDA8B3C9B3
:101DD000B9A60A0A000000000D0A47345F6D616968
:101DE0006C20CFFBCFA2D3CACFE4B4B4BDA8CAA79E
:101DF000B0DC0A0A00000000706C61795F6D710050
:101E0000D01200200D0A20706C61795F6D7120CFB7
:101E1000FBCFA2B6D3C1D0B4B4BDA8B3C9B9A6A3F1
:101E2000A10D0A000D0A20706C61795F6D7120CFE1
:101E3000FBCFA2B6D3C1D0B4B4BDA8CAA7B0DCA3AF
:101E4000A10D0A00911C00086B6579002800002094
:101E5000079C00087765624D736748616E640000F7
:101E6000AC1200200D0A207765624D736748616EE1
:101E7000645F74687265616420CFDFB3CCB4B4BDB5
:101E8000A8B3C9B9A60D0A000D0A207765624D7383
:101E90006748616E645F74687265616420CFDFB308
:101EA000CCB4B4BDA8CAA7B0DC0D0A0038B5012176
:101EB0000820FEF7DEFC2020ADF8000010208DF891
:101EC000030003208DF802000F4C69462046FEF700
:101ED000CAFA0121ADF8001069462046FEF7C3FAA0
:101EE0000221ADF8001069462046FEF7BCFA202119
:101EF0002046FEF727FB01212046FEF723FB0221A7
:101F00002046FEF71FFB38BD000C014008B54FF41A
:101F1000A060FEF7E3F925208DF8000001208DF880
:101F200001008DF802008DF803006846FEF7DBF92A
:101F300008BD10B586B001210420FEF79AFC0121EE
:101F40008803FEF796FC4FF40070ADF814001820DB
:101F50008DF8170003208DF81600654C05A9204662
:101F6000FEF781FA2115ADF8141004218DF8171031
:101F700005A92046FEF777FA4FF4E13001900020E2
:101F8000ADF80800ADF80A00ADF80C00ADF810008F
:101F90000C20ADF80E00574C01A92046FFF778FC45
:101FA000FFF7B4FF012240F225512046FFF7F7FC6E
:101FB00001212046FFF7E7FC06B010BD10B504462E
:101FC0002046FFF741FD80212046FFF7AAFD0028AB
:101FD000F9D010BD2DE9F04107460D461646002404
:101FE00005E0295D3846FFF7E9FF641CE4B2B4421E
:101FF000F7D340213846FFF794FD0028F9D0BDE81B
:10200000F08170B506460D4600243046295DFFF785
:10201000D5FF641C285D0028F7D140213046FFF72A
:1020200080FD0028F9D070BD70B50546080ACCB215
:1020300001462846FFF708FD80212846FFF771FD7D
:102040000028F9D021462846FFF7FEFC80212846CB
:10205000FFF767FD0028F9D070BD70B50446254D27
:10206000E1B22846FFF7F0FC80212846FFF759FD32
:102070000028F9D0204670BD10B51E4C2021204606
:10208000FFF74FFD0028F9D02046BDE81040FFF7CC
:10209000DFBC70B5174C40F225512046FFF74CFDD0
:1020A00000280ED02046FFF7D3FCC1B2124A108898
:1020B000030406D444044FF0000307D50A2901D0D5
:1020C000138070BD40F40040108070BD0D290AD00F
:1020D0000A4DC0F30D042955401C80B21080C7285A
:1020E000F3D9138070BD40F48040108070BD0000B3
:1020F00000080140003801402C0000206C23002023
:10210000704770B504460D4629462046FEF706FA8C
:10211000012801D0002070BD29462046FEF7FEF9B7
:102120000128F9D0012070BD08B501210820FEF773
:10213000A0FB4020ADF8000028208DF8030003200C
:102140008DF802006946F848FEF78DF908BDF74999
:102150000A885206FCD5F549091D0880704710B55C
:10216000EF20FFF7F4FFBDE810400120EFE710B5C6
:10217000EF4C2068000EFFF7EAFF2068C0F307402D
:10218000FFF7E5FF2088C0F30720FFF7E0FF207886
:10219000BDE81040DBE7DAE710B50446C4F30720DA
:1021A000FFF7D5FFE0B2BDE81040D0E7CFE710B5AC
:1021B0000446200AFFF7CBFFE0B2BDE81040C6E7B7
:1021C0007CB50446EF208DF8000001208DF8010059
:1021D000D7480068010E8DF80210010C8DF803102D
:1021E000010A8DF804108DF8050007208DF806000F
:1021F00000268DF80760CF4D2E800CE0012000F006
:10220000ABFD2888000406D52E806946CA480AF02E
:10221000A1FF002804D1641E2404240CEED1002068
:102220007CBD10B5FFF79BFFFFF7A1FF0120FFF773
:10223000B2FF0320FFF7B0FF0120FFF7B7FF052033
:10224000FFF7B5FF4FF4FA60FFF7BAFF08B1407A25
:1022500010BDFF2010BD10B50446FFF780FFFFF74B
:1022600086FF0120FFF797FF0420FFF795FF02206C
:10227000FFF79CFF2046FFF76AFFE01DFFF797FF7F
:102280004FF4FA60FFF79CFF08B1407A10BDFF20C1
:1022900010BD10B5FFF763FFFFF769FF0120FFF7DF
:1022A0007AFF0320FFF778FF0320FFF77FFF072067
:1022B000FFF77DFF4FF4FA60FFF782FF08B1407A25
:1022C00010BDFF2010BD2DE9F04107460C46154614
:1022D0001E46FFF744FFFFF74AFF0120FFF75BFFB1
:1022E0000820FFF759FF0420FFF760FF3846FFF78B
:1022F0002EFF200AFFF72BFFE0B2FFF728FF280A86
:10230000FFF725FFE8B2FFF722FF07EB1420E1B249
:10231000084400EB1520E9B208440D30FFF747FFF1
:102320004FF4FA60FFF74CFF58B1417AC27A837AD2
:1023300002EB03223280427B007B02EB00207080A4
:1023400000E0FF210846BDE8F08110B5FFF707FF68
:10235000FFF70DFF0120FFF71EFF0320FFF71CFF13
:102360000520FFF723FF0920FFF721FF4FF4FA6054
:10237000FFF726FF08B1407A10BDFF2010BD70B5F1
:1023800005460C46FFF7EBFEFFF7F1FE0120FFF7D5
:1023900002FF0620FFF700FF0620FFF707FF284691
:1023A000FFF7D5FE200AFFF7D2FEE0B2FFF7CFFE1F
:1023B00005EB1420E1B208440D30FFF7F8FE4FF4AE
:1023C000FA60FFF7FDFE08B1407A70BDFF2070BDD6
:1023D00070B504460D46FFF7C2FEFFF7C8FE0120A8
:1023E000FFF7D9FE0720FFF7D7FE0C20FFF7DEFE30
:1023F000200AFFF7ACFEE0B2FFF7A9FE280AFFF7BC
:10240000A6FEE8B2FFF7A3FEE0B200EB142000EB5B
:102410001520E9B208441430FFF7C9FE4FF4FA6002
:10242000FFF7CEFE08B1407A70BDFF2070BD10B539
:10243000FFF795FEFFF79BFE0120FFF7ACFE0320A0
:10244000FFF7AAFE0D20FFF7B1FE1120FFF7AFFE48
:102450004FF4FA60FFF7B4FE08B1407A10BDFF20D8
:1024600010BD21283CD2DFE800F011131517191B0D
:102470001D1F212325273B3B3B3B27293B3B3B2B78
:102480003B3B2D2F3133353B3B3739002BA0704779
:102490002BA070472EA0704732A0704736A070471F
:1024A0003DA0704744A070474AA0704757A07047AE
:1024B00059A070475CA070475FA0704762A070474A
:1024C00065A070476DA0704770A0704772A07047FC
:1024D00075A0704779A070477DA070477FA07047B6
:1024E00081A0704770B505460C46FFF738FEFFF730
:1024F0003EFE0120FFF74FFE0520FFF74DFE0E20A8
:10250000FFF754FE2846FFF722FE2046FFF71FFE86
:1025100028191430FFF74BFE4FF4FA60FFF750FE16
:1025200008B1447AEBE0E9E0000C014000440040CF
:102530003000002034000020342400204F4B0000E5
:10254000CAFDBEDDB0FCBDD3CAD5B4EDCEF30000EC
:10255000B4ABB8D0C6F7C9CFC3BBD3D0CAD6D6B8F0
:1025600000000000C2BCC8EBD6B8CEC6CDBCCFF1CF
:10257000CAA7B0DC00000000D6B8CEC6CDBCCFF1F3
:10258000CCABB8C9A1A2CCABB5ADB6F8C9FAB2BB59
:10259000B3C9CCD8D5F70000D6B8CEC6CDBCCFF1E4
:1025A000CCABCAAAA1A2CCABBAFDB6F8C9FAB2BBF1
:1025B000B3C9CCD8D5F70000D6B8CEC6CDBCCFF1C4
:1025C000CCABC2D2B6F8C9FAB2BBB3C9CCD8D5F736
:1025D00000000000D6B8CEC6CDBCCFF1D5FDB3A368
:1025E000A3ACB5ABCCD8D5F7B5E3CCABC9D9A3A8D0
:1025F000BBF2C3E6BBFDCCABD0A1A3A9B6F8C9FA28
:10260000B2BBB3C9CCD8D5F700000000D6B8CEC64F
:10261000B2BBC6A5C5E40000C3BBCBD1CBF7B5BDEB
:10262000D6B8CEC600000000CCD8D5F7BACFB2A23B
:10263000CAA7B0DC00000000C9BEB3FDC4A3B0E56A
:10264000CAA7B0DC00000000C7E5BFD5D6B8CEC62B
:10265000BFE2CAA7B0DC0000BBBAB3E5C7F8C4DA72
:10266000C3BBD3D0D3D0D0A7D4ADCABCCDBCB6F8F1
:10267000C9FAB2BBB3C9CDBCCFF10000B6C1D0B46A
:1026800020464C41534820B3F6B4ED00CEB4B6A872
:10269000D2E5B4EDCEF30000CEDED0A7BCC4B4E6E4
:1026A000C6F7BAC500000000BCC4B4E6C6F7C9E866
:1026B000B6A8C4DAC8DDB4EDCEF30000BCC7CAC208
:1026C000B1BED2B3C2EBD6B8B6A8B4EDCEF300001B
:1026D000D6B8CEC6BFE2C2FA00000000B5D8D6B761
:1026E000B4EDCEF300000000C4A3BFE9B7B5BBD87A
:1026F000C8B7C8CFC2EBD3D0CEF30000FF2444B19B
:102700002046FFF7AEFE0146C8A003F052F820466F
:1027100070BDC8A003F04DF8F9E770B50446FFF7A7
:102720001EFDFFF724FD0120FFF735FD0320FFF715
:1027300033FD0F20FFF73AFD1320FFF738FD4FF46C
:102740007A70FFF73DFDB8B1457AC17B827B01EB22
:1027500002212180417CA170417D827C037D01EBBF
:102760000261C27C120402EB032211446160C17D4C
:102770002172407E607200E0FF2545B12846FFF7D8
:1027800070FE0146A9A003F014F8284670BD218808
:10279000ADA003F00EF8A178B1A003F00AF8B4A040
:1027A000616803F006F8617A4FF416504143B3A014
:1027B00002F0FFFFE9E770B50446FFF7D0FCFFF732
:1027C000D6FC0120FFF7E7FC0720FFF7E5FC15200A
:1027D000FFF7ECFC200EFFF7BAFCC4F307400646F7
:1027E000FFF7B5FCC4F307200546FFF7B0FCE0B2E5
:1027F000FFF7ADFC06EB14602844E1B208441D303D
:10280000FFF7D5FCA04E34604FF4FA60FFF7D8FC18
:1028100008B1457A00E0FF25346045B12846FFF74E
:1028200020FE014681A002F0C4FF284670BD97A09B
:1028300002F0BFFFF9E72DE9F04107460E46FFF72A
:102840008EFCFFF794FC0120FFF7A5FC2420FFF786
:10285000A3FC1820FFF7AAFC3846FFF778FC0024F9
:10286000305DFFF774FC305D284485B2641CE4B22F
:10287000202CF5D378193D3080B2FFF798FC4FF447
:10288000FA60FFF79DFC08B1407A5CE5FF205AE54D
:1028900070B505460C46FFF762FCFFF768FC0120A7
:1028A000FFF779FC0420FFF777FC1920FFF77EFC87
:1028B0002846FFF74CFC05F11E00FFF778FC4FF4AB
:1028C000FA60FFF77DFC48B1437A00228118897ACB
:1028D000A154521CD2B2202AF8D300E0FF2318469C
:1028E00070BD2DE9F04107460C4615461E46FFF720
:1028F00036FCFFF73CFC0120FFF74DFC0820FFF7FA
:102900004BFC1B20FFF752FC3846FFF720FC200A47
:10291000FFF71DFCE0B2FFF71AFC280AFFF717FCCF
:10292000E8B2FFF714FC07EB1420E1B2084400EB17
:102930001520E9B208442430FFF739FC4FF4FA605F
:10294000FFF73EFC58B1417AC27A837A02EB032248
:102950003280427B007B02EB0020708000E0FF2190
:102960000846F0E470B50546FFF7F9FBFFF7FFFBFB
:102970000120FFF710FC0320FFF70EFC1D20FFF7DE
:1029800015FC2120FFF713FC4FF4FA60FFF718FC49
:1029900030B1447AC17A827A01EB0221298000E0C9
:1029A000FF2444B12046FFF75CFD01463CA002F045
:1029B00000FF204670BDC17A807A01EB00213AA069
:1029C00002F0F7FEF5E770B50446FFF7C8FBFFF726
:1029D000CEFB0120FFF7BBFB0020FFF7B8FB002078
:1029E000FFF7B5FBC82000F0B7F9344A108800049F
:1029F0000BD5334900230878EF2805D14878012802
:102A000002D18879072802D01380012070BD48794F
:102A10008D7800EB0560CD7809792D0405EB012157
:102A2000084420601380002070BD00000D0A25734B
:102A3000000000000D0AC9E8D6C3B2CECAFDB3C972
:102A4000B9A6A3A1000000000D0AC4A3BFE9D7EEF8
:102A5000B4F3D6B8CEC6C8DDC1BF3D2564000000C2
:102A60000D0AB6D4B1C8B5C8BCB63D256400000097
:102A70000D0AB5D8D6B73D25780000000D0AB2A8DA
:102A8000CCD8C2CA3D256400300000200D0AC9E838
:102A9000D6C3B5D8D6B7B3C9B9A6A3A10000000064
:102AA00025730A0A000000000D0AD3D0D0A7D6B8BB
:102AB000CEC6B8F6CAFD3D25640A0A0034000020DF
:102AC0003424002038B501210420FDF7D2FE4FF454
:102AD0008074ADF8004010208DF8030003208DF8BD
:102AE0000200054D69462846FDF7BDFC21462846F3
:102AF000FDF72AFD38BD00000008014010B5224C4A
:102B000001212046FEF76CFE00280ED01F480188E8
:102B100041F40041018001212046FEF76DFE204670
:102B2000BDE810400021FEF70EBC10BD7FB5044685
:102B30000D4601212020FDF7A7FEADF80440ADF8B9
:102B400000500024ADF80640ADF802400E4D694635
:102B50002846FEF727F9012211462846FEF70DFC0C
:102B600001212846FEF7EFFB37208DF80C008DF889
:102B70000D4002208DF80E0001208DF80F0003A8F3
:102B8000FDF7B1FB7FBD00000014004034000020C1
:102B900070B5534C40F225512046FEF7CDFF00287A
:102BA0001BD02046FEF754FFC5B24E4C20880004CF
:102BB00013D42088B0F5C87F10D24B4E0021304688
:102BC000FEF7E2FD218819B901213046FEF7BBFB73
:102BD0002088411C218045490D5470BD208840F457
:102BE0000040208070BDF0B587B00446012104206C
:102BF000FDF73FFE01214804FDF746FE384F3846F9
:102C0000FEF7FEFD0426ADF8146003258DF816507E
:102C100018208DF8170005A93548FDF724FC082079
:102C2000ADF814008DF8176005A93248FDF71BFCBC
:102C300001940024ADF80840ADF80A40ADF80C400E
:102C4000ADF810400C20ADF80E0001A93846FEF793
:102C50001FFE01213846FEF796FE012240F2255163
:102C60003846FEF79CFE26208DF8180002208DF8CD
:102C700019008DF81A5001208DF81B0006A8FDF7E9
:102C800032FB41F61F416320FFF750FF15480480D7
:102C900000211548FEF757FB07B0F0BD0FB4F8B59B
:102CA00007AA154806990AF05DFE00200090124818
:102CB0000AF06CFA86B20024094F0F4D0BE0402158
:102CC0003846FEF72EFF0028F9D0295D3846FEF77A
:102CD000BBFE641CA4B2B442F1D3F8BC5DF814FB93
:102CE0000044004034000020001400403424002040
:102CF00000080140000C0140C425002010B56FF011
:102D00000400FDF733FB204820490068B0FBF1F0D8
:102D10001F49C0B2087000EB4002C2EBC0104FF672
:102D2000FF7202EAC000488010BD19490978484383
:102D30004FF0E021486100238B61086940F00100F9
:102D400008610869C20701D0C003FAD5086920F0FC
:102D5000010008618B6170470D49498848434FF075
:102D6000E021486100238B61086940F0010008619F
:102D70000869C20701D0C003FAD5086920F0010034
:102D800008618B61704700000000002000127A008B
:102D90003600002038B501211020FDF76AFD4FF400
:102DA0007060ADF8000010208DF8030003248DF84A
:102DB00002406D4D69462846FDF755FBF021ADF800
:102DC000001028218DF803108DF80240694628462E
:102DD000FDF749FB38BD70B56424634DE86880B2E7
:102DE00040F470612846FDF7B7FBA8684FF0FF3646
:102DF00010F0F00F1BD01420FFF7AEFFA86810F002
:102E0000F00F16D0E8684FF2FF06304040F48071B2
:102E10002846FDF7A1FBA86800F0F00010280AD0B2
:102E200020280AD040280AD080280BD109E030465B
:102E300070BD304670BD032404E0072402E00B247B
:102E400000E00F24A86810F0F00FFBD1E8683040D4
:102E500040F400712846FDF77FFBA86800F0F00001
:102E6000102806D0202806D0402806D0802807D178
:102E700005E0022404E0062402E00A2400E00E2417
:102E8000A86810F0F00FFBD1E868304040F4806192
:102E90002846FDF761FBA86800F0F000102806D076
:102EA000202806D0402806D0802807D105E001243C
:102EB00004E0052402E0092400E00D24A86810F0D5
:102EC000F00FFBD1E868304040F400612846FDF780
:102ED00043FBA86800F0F000102806D0202806D098
:102EE000402806D0802807D105E0002404E004240F
:102EF00002E0082400E00C24A86810F0F00FFBD1D9
:102F0000204670BD10B5FFF766FF102829D2DFE814
:102F100000F0080A0C0E10121416181A1C1E20229B
:102F20002426012010BD022010BD032010BD0B205F
:102F300010BD042010BD052010BD062010BD0C20C2
:102F400010BD072010BD082010BD092010BD0D20A8
:102F500010BD142010BD002010BD152010BD0E2086
:102F600010BD642010BD00000010014070B50024A9
:102F700042F20F754FF6FF76FFF7C4FFC2B2642A24
:102F8000FAD00D2A0ED00E2A0ED0501E082806D8D0
:102F9000AC4204D204EB840002EB400084B2152A58
:102FA00005D007E0304670BD4FF47F4070BD0A2069
:102FB000B4FBF0F42AB9AC4203D204EB840006EA75
:102FC0004004142A04D02146FEA002F0F2FBD3E70D
:102FD000204670BD70B5054600240026FFF792FF1D
:102FE00042B2642AFAD00D2A0DD00E2A0ED0092A38
:102FF00006D8214602F13000641CE4B268542E5514
:10300000152A06D008E04FF6FF7070BD4FF47F40E0
:1030100070BD641EE4B22E55142A04D02946ECA0DB
:1030200002F0C7FBDAE74FF4704070BD10B50446FC
:1030300020460AF0ABF882B20021002302E063547C
:10304000491CC9B29142FAD310BD2DE9F05F0024AA
:103050000026E3A002F0ADFBE64FDFF89CA3A046FC
:103060004FF001094FF4966B761CB6B2052C7CD25A
:10307000DFE804F003213F5366006D1CEDB2DFA0D2
:1030800002F097FBFFF7CDF818B1DFA002F091FB3B
:103090006BE0C7F8A0910120FFF7DDF8C7F8A08129
:1030A00018B1DDA002F085FB5FE0DEA002F081FB3D
:1030B0000025012459E06D1CEDB2DDA002F079FB82
:1030C000FFF7AFF818B1D0A002F073FB4DE0C7F8DE
:1030D000A0910220FFF7BFF8C7F8A08118B1CEA0D9
:1030E00002F067FB41E0CFA002F063FB0025022461
:1030F0003BE0D4A002F05DFBFFF7CBF840B1D5A0D8
:1031000002F057FB002500245846FFF725FE2CE06F
:10311000D7A002F04EFB0324F6E7DBA002F049FB48
:10312000FFF713F938B10024DBA002F042FB584648
:10313000FFF712FE19E0DDA002F03BFB0424F6E7E6
:10314000DFA002F036FBE5A002F033FBFFF70EFF35
:103150000146BAF800008842F8D90220FFF70FF9BB
:1031600088B10024E1A002F024FB4FF47A70FFF74D
:10317000F3FD052D1BD00A2E7FF476AFBDE8F05F7E
:10318000DEA002F016BBE5A002F013FBE748FFF754
:10319000E9FBE649BAF800000988411AE4A002F008
:1031A00008FBBDE8F05F40F2DC50FFF7D5BDBDE89D
:1031B000F05FD2A002F0FDBAF8B5FFF732F80028B0
:1031C00010D18C4C0120C4F8A001FFF744F8002571
:1031D00048B1DFA002F0EDFAC4F8A0514FF4167028
:1031E000FFF7BAFDF8BDC4F8A05183486B46002133
:1031F00002880120FFF775FB18B1D9A002F0D9FAB7
:10320000EAE7DBA002F0D5FA322002F00DFC064618
:10321000BDF80230BDF80020D9A130460AF08EFB7F
:103220003146DFA002F0C5FAD6E72DE9F84F0024B9
:10323000DFF878A30127DFF8F4826E4D00264FF403
:10324000167B641CDAF8180100283FD0FEF7E9FF6E
:1032500000283BD1C5F8A0710120FEF7FCFF20B18A
:10326000D3A002F0A6FABDE8F88FC5F8A0616248C5
:103270006B46002102880120FFF733FB38B1C8F804
:103280000460D3A002F095FAFFF7DFFEEBE7B8A0E9
:1032900002F08FFA322002F0C7FB8146BDF80230FF
:1032A000BDF80020D0A148460AF048FB4946BCA022
:1032B00002F07FFA484602F035FCC8F80470062C8C
:1032C000D1D0C5F8A0615846FFF746FDD2A002F064
:1032D00070FA0A2C03D05846FFF73EFDB1E70220F2
:1032E000C8F80400D1A002F064FABCE710B5D8A079
:1032F00002F05FFAD9A002F05CFA78A002F059FA65
:103300003220FFF729FDFFF731FE0446A4F57F4088
:10331000FF3802D1D8A002F04CFAB4F57F4F1BD091
:1033200001212046FFF754F8C8B1D7A002F041FAB6
:103330004FF49660FFF710FD7C48FFF713FB2E4813
:103340007A4900880988411A79A002F032FABDE86A
:1033500010403220FFF700BDFFF769F8E4E7CFA087
:1033600002F027FAE4E770B5D1A002F022FAD7A064
:1033700002F01FFA4FF4C87465000BE02046FFF717
:10338000EBFCD8A002F015FA2846FFF7E5FCDBA01D
:1033900002F00FFADE48FFF716FB0028EED1DDA0A1
:1033A00002F007FA1E2002F03FFB0446D8484FF413
:1033B0006142DCA1036820460AF0C0FA214606A05B
:1033C000BAE100006E756D3D25640A0A0000000038
:1033D0007374725F6E756D3D25730A0A00000000FC
:1033E000BFAACABCC2BCD6B8CEC6A3A1A3A1A3A182
:1033F0000A0A00000000214254270020C7EBB0B4A5
:10340000D6B8CEC60A0A0000C9FAB3C9CCD8D5F7D7
:10341000B4EDCEF30A0A0000D6B8CEC6B4EDCEF3B2
:103420000A0A0000D6B8CEC6D5FDB3A30A0A00002A
:10343000C7EBB0B4D4D9B0B4D2BBB4CED6B8CEC634
:103440000A0A0000B6D4B1C8C1BDB4CED6B8CEC643
:103450000A0A0000B6D4B1C8CAA7B0DCA3ACC7EB57
:10346000D6D8D0C2C2BCC8EBD6B8CEC60A0A0000B5
:10347000B6D4B1C8B3C9B9A62CC1BDB4CED6B8CEE6
:10348000C6D2BBD1F90A0A00C9FAB3C9D6B8CEC6AA
:10349000C4A3B0E50A0A0000C9FAB3C9D6B8CEC6BB
:1034A000C4A3B0E5B4EDCEF30A0A0000C9FAB3C96B
:1034B000D6B8CEC6C4A3B0E5B3C9B9A60A0A0000FF
:1034C000C7EBCAE4C8EBB4A2B4E649442CB0B44597
:1034D0006E746572B1A3B4E60A0A0000303D3C2068
:1034E0004944203C3D3239390A0A0000C2BCC8EBCD
:1034F000D6B8CEC6CAA7B0DC0A0A0000B3ACB9FD84
:1035000035B4CEC3BBD3D0B0B4CAD6D6B8A3ACCD35
:10351000CBB3F6A3A1A3A1A3A10A0A00C2BCC8EB26
:10352000D6B8CEC6B3C9B9A60A0A0000400000202A
:103530004153363038506172612E50535F6D61785F
:103540002D56616C69644E3D25640A0A0000000036
:10355000C9FAB3C9CCD8D5F7CAA7B0DC0A0A0000AB
:10356000CBD1CBF7CAA7B0DCA3A10A0A00000000A8
:10357000CBA2D6B8CEC6B3C9B9A60A0A00000000CD
:10358000C8B7D3D0B4CBC8CB2C49443A256420204B
:10359000C6A5C5E4B5C3B7D63A25640A0A0000003B
:1035A0007374723D25730A0A0000000000802142F6
:1035B000C9FAB3C9D6B8CEC6CCD8D5F7CAA7B0DC3D
:1035C000A3ACCDCBB3F6A3A1A3A1A3A10A0A00008B
:1035D000B4CBD6B8CEC6CEB4C2BCC8EBA3A1A3A10F
:1035E000A3A10A0A00000000D2D1D3D0D6B8CEC61B
:1035F0002C49443A25642020C6A5C5E4B5C3B7D6F6
:103600003A25640A0AC7EBBBBBB8F6D6B8CEC621CA
:1036100021210A0A00000000C7EBB0B4D6B8CEC61C
:10362000A3A1A3A1A3A10A0A00000000B3ACB9FDA5
:103630003130B4CEC3BBD3D0B0B4CAD6D6B8A3ACA5
:10364000CDCBB3F6A3A1A3A1A3A10A0A0000000059
:10365000C9BEB3FDD6B8CEC60A0A0000C7EBCAE49D
:10366000C8EBD6B8CEC64944B0B4456E746572B7DF
:10367000A2CBCD0A0A000000B7B5BBD8D6F7BDE78C
:10368000C3E60A0A00000000C9BEB3FDD6B8CEC624
:10369000B2BBB3C9B9A62121210A0A00C9BEB3FD34
:1036A000D6B8CEC6B3C9B9A62121210A0A000000A6
:1036B0004153363038D6B8CEC6CAB6B1F0C4A3BF6F
:1036C000E9B2E2CAD4B3CCD0F20A0A00D3EB415338
:1036D000363038C4A3BFE9CED5CAD62E2E2E2E0A38
:1036E0000A000000CEB4BCECB2E2B5BDC4A3BFE991
:1036F000A3A1A3A1A3A10A0A00000000B3A2CAD4F7
:10370000C1ACBDD3C4A3BFE92E2E2E0A0A0000000F
:1037100030000020CDA8D1B6B3C9B9A62121210A15
:103720000A000000B2A8CCD8C2CA3A2564202020E2
:10373000B5D8D6B73A25780002F03BF81348FFF722
:1037400011F910B112A002F034F81348FEF7E5FFAA
:1037500038B112A002F02DF82046BDE8704002F00A
:10376000E1B932220021204601F066FD0A480749EE
:10377000837800880988421A0AA120460AF0DEF8F8
:103780002146AFF2AC3002F014F8E5E7400000202B
:103790004F4B0A0A00000000542700204552524FA8
:1037A000520A0A00BFE2C8DDC1BF3A2564202020CA
:1037B0002020B6D4B1C8B5C8BCB63A2025640000F4
:1037C0002DE9F047BD4C00202060BD4EBD4FDFF815
:1037D000F882BE4D4FF47A792068401C2060FFF7D4
:1037E00091FB80B2A8F800000B280ED1B8A001F020
:1037F000E0FFBE48FFF71AFCBC48FFF7EBFBAF4900
:10380000BA48133109F0C9FC78B1206848457ADD1F
:10381000B7A001F0CEFFB548FFF708FCB348FFF7AB
:10382000D9FBA068012845D066E0B7A001F0C1FF30
:10383000A2481330FFF7FAFBA0481330FFF7CAFB8A
:103840001322B8A19E4804F060FB28700146B9A07D
:1038500001F0AFFF287830BB0021994804F002FE48
:103860009649B94B09221331954804F0BAFC2870E7
:10387000B5480168B5A001F09CFF287880B9002107
:103880008F4804F0EFFD8F4BB3498D48F26804F088
:10389000EAFB287020B9B049B0A03A6801F089FF6E
:1038A000874804F0D0FDBDE8F0478449B1A013314A
:1038B00001F07FBF13229BA1814804F026FB2870F2
:1038C00001469CA001F075FF287890B900217C4842
:1038D00004F0C8FD79497B4B13317948F26804F054
:1038E000C2FB287028B97549A7A013313A6801F0C6
:1038F00060FF734804F0A7FD70497C48133109F05C
:103900004CFC30B100E00BE0BDE8F047A4A001F0B2
:1039100050BF7648FFF78AFBBDE8F047FFF785BC4C
:103920000120FFF719FA57E72DE9F047634C002013
:103930002060634E634FDFF89081644D4FF47A79D5
:103940002068401C2060FFF7DDFA80B2A8F8000074
:103950000D2811D199A001F02CFF64486430FFF7C5
:1039600065FB62486430FFF735FB54495F480C3112
:10397000643009F012FC88B12068484576DD94A0D7
:1039800001F017FF59486430FFF750FB5748643087
:10399000FFF720FB6068012846D06FE091A001F09E
:1039A00008FF46480C30FFF741FB44480C30FFF756
:1039B00011FB424990A00C3101F0FBFE132293A1B0
:1039C0003F4804F0A2FA287001465AA001F0F1FE27
:1039D000287800286BD10021394804F043FD37498D
:1039E000594B07220C31364804F0FBFB287056482F
:1039F000016856A001F0DDFE287880B9002130482A
:103A000004F030FD2F4B54492D48F26804F02BFB95
:103A1000287020B9504951A03A6801F0CAFEBDE8AB
:103A2000F047274804F00FBD132278A1244804F082
:103A30006CFA287001463FA001F0BBFE2878D0B98F
:103A400000211F4804F00EFD1C491E4B0C311C4880
:103A5000F26804F008FB2870184968A00C3101F0E6
:103A6000A8FE287838B915490C3100E021E06BA098
:103A70003A6801F09EFE124804F0E5FC0F491B482D
:103A80000C31643009F089FB20B1BDE8F04769A032
:103A900001F08FBE15486430FFF7C8FA6B48012467
:103AA00004604846FFF758F96848001F0460BDE805
:103AB000F0870120FFF750F942E70000480000209E
:103AC000583800206C0000203C00002068000020D6
:103AD000C7EBCAE4C8EBBEC9B5C4C2BCD6B8CEC633
:103AE000D1E9D6A4C3DCC2EB3A0A0A006027002061
:103AF000C7EBCAE4C8EBC2BCD6B8CEC6D1E9D6A4DF
:103B0000C3DCC2EB3A0A0A00C7EBCAE4C8EBC9E857
:103B1000D6C3C2BCD6B8CEC6D1E9D6A4C3DCC2EBEC
:103B20000A0A0000313AC8CFD6A4C3DCC2EB2E7417
:103B3000787400000D0A665F6F70656E20726573A1
:103B4000203D25640A0A00009C1100200D0A6277BE
:103B50003D202564000000009C0100200D0ACEC419
:103B6000BCFEC4DAC8DDA3BA25732062723D2025ED
:103B700064000000666C6173685F70617373776FD7
:103B800072643A25730A0A00CEC4BCFEC4DAC8DDEA
:103B9000A3BA25732062723D2025640A0A00000042
:103BA000C8CFD6A4C3DCC2EBCAE4C8EBB4EDCEF3F5
:103BB000A3A1A3A1A3A10A0A00000000C7EBCAE4C5
:103BC000C8EBD4ADBFAACBF8C3DCC2EB3A0A0A00FB
:103BD000C7EBCAE4C8EBBFAACBF8C3DCC2EB3A0A16
:103BE0000A000000C7EBC9E8D6C3BFAACBF8C3DC04
:103BF000C2EB0A0A000000007379735F706173738F
:103C0000776F72643A25730A0A000000313ACFB523
:103C1000CDB3C3DCC2EB2E74787400000D0ACEC4A1
:103C2000BCFEC4DAC8DDA3BA25732062723D20252C
:103C3000640A0A00CFB5CDB3C3DCC2EBCAE4C8EB5B
:103C4000B4EDCEF3A3A1A3A1A3A10000140C0140E5
:103C500070B586B001210803FCF70BFE0121D420CA
:103C6000FCF707FE0124ADF8004003208DF80200A8
:103C700010208DF80300FA4D69462846FCF7F3FB47
:103C80002021ADF8001018218DF80310F54E69467B
:103C90003046FCF7E8FB4021ADF80010694630469D
:103CA000FCF7E1FB8021ADF8001069463046FCF7D7
:103CB000DAFB01212846FCF745FC0020ADF80400A2
:103CC0004FF48271ADF80610ADF808000221ADF88E
:103CD0000A10ADF80C400902ADF80E100821ADF83D
:103CE0001010ADF812000720ADF81400DE4C01A949
:103CF0002046FCF741FE01212046FCF7C2FE06B03B
:103D000070BD10B50146D9A009F008FE002010BD15
:103D10002DE9F0410746E14C4FF480552560D24E25
:103D200009E02068411E216005D20020FFF7E9FF6D
:103D3000C0B2BDE8F08102213046FCF71EFF00282A
:103D4000EFD039463046FCF7CCFE256008E021680C
:103D50004A1E226004D20120FFF7D3FFC0B2E8E779
:103D600001213046FCF709FF0028F0D03046FCF76F
:103D7000BAFEC0B2DDE710B5B94C01212046FCF710
:103D8000E3FB0520FFF7C4FFFF20FFF7C1FFC007DB
:103D9000FAD12046BDE810400121FCF7D3BB10B595
:103DA000AF4C01212046FCF7CFFB0620FFF7B0FF08
:103DB0002046BDE810400121FCF7C4BB70B50446A5
:103DC000FFF7EDFFFFF7D7FFA54D01212846FCF7D0
:103DD000BBFB2020FFF79CFFC4F30740FFF798FFD1
:103DE000C4F30720FFF794FFE0B2FFF791FF012132
:103DF0002846FCF7A7FBBDE87040BCE710B5FFF70D
:103E0000CEFF974C01212046FCF79EFBC720FFF711
:103E10007FFF01212046FCF795FBBDE81040AAE793
:103E20002DE9F04105460F461446FFF7B8FF8C4ECA
:103E300001213046FCF788FB0220FFF769FFC7F33A
:103E40000740FFF765FFC7F30720FFF761FFF8B2F0
:103E5000FFF75EFFB015844208D9044690A009F030
:103E60005DFD03E02878FFF753FF6D1C641EA4B2CC
:103E7000F8D201213046FCF765FBBDE8F0417AE756
:103E80002DE9F04706460D46E8B24142CFB2140A8A
:103E900002F0FF094FF48078002812D0E8B24042C7
:103EA000C0B205EB000A24B3D01B80B2040A00F0B4
:103EB000FF093A4629463046FFF7B2FF55463E44D1
:103EC00035E06CB929463046BDE8F047A8E74246E0
:103ED00029463046FFF7A4FF05F5807506F5807684
:103EE000641EE4B2F3D24A4629463046BDE8F047A4
:103EF00096E7B9450DD9A9EB0700C4B23A46294661
:103F00003046FFF78DFF5146F0192246BDE8F047D5
:103F100086E729463046BDE8F04781E74246294614
:103F20003046FFF77DFF05F5807506F58076641E47
:103F3000E4B2F3D2B9F1000F05D04A462946304623
:103F4000BDE8F0476CE7BDE8F0872DE9F041044695
:103F50000F461546424E01213046FCF7F5FA032084
:103F6000FFF7D6FEC7F30740FFF7D2FEC7F30720DF
:103F7000FFF7CEFEF8B2FFF7CBFE04E0FF20FFF71D
:103F8000C7FE04F8010B6D1EADB2F7D23046BDE896
:103F9000F0410121FCF7D6BA2DE9F041304F012163
:103FA0003846FCF7D1FA9F20FFF7B2FEFF20FFF75B
:103FB000AFFE0446FF20FFF7ABFE0546FF20FFF7EC
:103FC000A7FE064601213846FCF7BCFA200440EA69
:103FD00005203043ADE670B5214C01212046FCF7A9
:103FE000B3FAAB20FFF794FEFF20FFF791FEFF200E
:103FF000FFF78EFEFF20FFF78BFEFF20FFF788FE06
:10400000054601212046FCF79DFA284670BD10B5F3
:10401000044601211248FCF797FA0320FFF778FEC7
:10402000C4F30740FFF774FEC4F30720FFF770FEE8
:10403000E0B2BDE810406BE6FF2069E62DE9F041F3
:104040000746164C4FF480552560074E42E0206825
:10405000411E21603ED2BDE8F041022051E6000041
:104060000010014000080140003001403C3C2D465A
:104070004C4153482D4552524F522D3E3E205350F5
:104080004920B5C8B4FDB3ACCAB1216572726F7274
:10409000436F6465203D2025640A00006400002011
:1040A0003C3C2D464C4153482D4552524F522D3EDB
:1040B0003E205350495F464C4153485F506167650D
:1040C000577269746520746F6F206C617267652127
:1040D0000A00000002213046FCF74FFD0028B6D050
:1040E00039463046FCF7FDFC256007E021684A1E92
:1040F000226003D2BDE8F041032002E601213046F0
:10410000FCF73BFD0028F1D03046BDE8F041FCF75C
:10411000EABC10B50E4C01212046FCF715FAB92077
:10412000FFF7F6FD2046BDE810400121FCF70ABA72
:1041300010B5074C01212046FCF706FAAB20FFF72B
:10414000E7FD2046BDE810400121FCF7FBB9000067
:104150000010014070B501224FA1504803F0B0FE9D
:104160004F4C207001464FA001F023FB20780D2812
:1041700019D10022114648A004F053FD20700146D9
:104180004DA001F016FB012243A1002003F098FE90
:104190002070012240A1414803F092FE20700146A8
:1041A0004AA001F006FB13224EA1524803F0ADFED7
:1041B0002070014650A001F0FCFA20784D4E0125F8
:1041C00000282DD10021304604F04CF9344B304604
:1041D0001B1D03F19A01F26803F045FF207028B916
:1041E0002F494AA09E31626801F0E3FA2C489E30C4
:1041F00008F0CCFF022805D329489E3008F0C6FFFE
:104200000F2803D94AA001F0D4FA06E0534805600C
:10421000234953489E3108F0CEFF364804F013F985
:10422000132250A1334803F070FE2070014632A0E3
:1042300001F0BFFA2078002829D100212D4804F090
:1042400011F9174B2B481B1D191DF26803F00BFFCA
:10425000207028B9124947A00831626801F0A9FA14
:104260000F48083008F092FF022805D30C480830A8
:1042700008F08CFF0C2803D947A001F09AFA06E059
:104280005048056006495048083108F094FFBDE8E1
:104290007040184804F0D7B8313A000028280020B0
:1042A00068000020665F6D6F756E74207265732004
:1042B0003D25640A0A000000665F6D6B667320721C
:1042C0006573203D25640A0A000000007365636F72
:1042D0006E6420665F6D6F756E7420726573203D2D
:1042E00025640000313ACFB5CDB3C3DCC2EB2E74E8
:1042F0007874000058380020665F6F70656E207219
:104300006573203D25640A0A00000000CEC4BCFE8F
:10431000C4DAC8DDA3A8CFB5CDB3C3DCC2EBA3A973
:10432000A3BA25732062723D2025640A0A000000AA
:10433000BDA8D2E9D0DEB8C4CFB5CDB3C3DCC2EBE3
:10434000A3ACB7F1D4F2CAB9D3C3D4ADCABCC3DCF1
:10435000C2EBA3A1A3A1A3A10A0A00004C00002064
:1043600054000020313AC8CFD6A4C3DCC2EB2E746F
:1043700078740000CEC4BCFEC4DAC8DDA3A8C8CFE0
:10438000D6A4C3DCC2EBA3A9A3BA25732062723DF5
:104390002025640A0A000000BDA8D2E9D0DEB8C416
:1043A000C8CFD6A4C3DCC2EBA3ACB7F1D4F2CAB970
:1043B000D3C3D4ADCABCC3DCC2EBA3A1A3A1A3A148
:1043C0000A0A0000500000205B00002070471848D7
:1043D0000068704710B5044602F094F914490C6067
:1043E000BDE8104002F092B910B511490868401CB0
:1043F000086001F0ADFE816C491E816419B9416C01
:10440000816401F03EFFBDE8104002F01AB90028B7
:1044100002DA4FF0FF30704700EB4001C1EBC010F3
:1044200040F2E73101EBC000491C90FBF1F070470E
:10443000A011002000207047002070470020704726
:104440000020704770B5234C234D02E02068804760
:10445000241DAC42FAD370BD70B51F4C1F4D02E055
:1044600020688047241DAC42FAD370BD10B5FFF719
:10447000F3FFBDE81040FDF732BC1CB5022114204B
:10448000CDE900100B020022AFF21F0114A001F0D1
:10449000B5FEBDE81C4001F07CBE10B502F032F95B
:1044A000FDF780FB01F094F902F000F901F0FAFC4D
:1044B000FFF7E3FF02F004F900F054F801F008FD03
:1044C000002010BD10B502F01DF9FFF7E6FF002037
:1044D00010BD000024AA030828AA03082CAA030878
:1044E0006D61696E0000000070B527E002F00AF906
:1044F000064600F051F868B32B480468A4F114058F
:10450000D4E900104860D4E90001086064602460C8
:1045100001F068FDA96F09B128468847284601F0D7
:1045200083FC01280FD001F068FD304602F0EEF860
:10453000A86A01F0F7FA284601F065FC00F02CF8B3
:104540000028D3D170BD01F058FD3046BDE8704061
:1045500002F0DCB83046BDE8704002F0D7B8FFF793
:10456000C3FFFCE71FB52020C20007210F4BCDE998
:104570000210CDE900320D4800230D4A0DA180380C
:1045800001F0CAFD04B00948BDE81040803801F0D0
:1045900000BE06488038704703480168814201D058
:1045A000012070470020704750120020FC48002076
:1045B0005F4500087469646C650000002DE9F041F6
:1045C00005460E461446304601F087FE06F11407F4
:1045D00014B1012C1DD104E03946284600F0D0FD6D
:1045E00017E02C680DE0A4F1140096F8351090F84F
:1045F0003520914204D23946143000F0C1FD02E06A
:104600002468AC42EFD1AC4203D13946284600F0D1
:10461000B7FD0020BDE8F08170B505464FF0FF34CE
:104620000AE002F06FF8064628681438046301F0C7
:1046300092FD304602F06AF8284600F0A8FD0028F6
:10464000EFD0002070BD2DE9F041054616461F460B
:104650000A460121284601F085FB2C46143464608B
:104660002460AE836F720020D4E710B5044604F1D5
:104670001400FFF7D1FF204601F092FB002010BD8F
:1046800070B50C4615460146012001F097FB002845
:1046900005D000F11401496009608483457270BD42
:1046A00010B5044604F11400FFF7B6FF204601F0F0
:1046B000AAFB002010BD73B5044602F023F806469D
:1046C000A08B28B1401EA083304602F01FF821E0E5
:1046D000019808B301F03CFD054600202863627A8A
:1046E000294604F11400FFF769FF0198002809DD4D
:1046F00005F14C0001AA0021044601F088FF204684
:1047000001F007FF304602F001F801F0F1FB286BE1
:10471000002800D100207CBD304601F0F7FF6FF08B
:1047200001007CBD0021C6E72DE9F04104460025CB
:1047300001F0E8FF064604F11400074600F027FDEB
:1047400040B1A08B401CA083304601F0DFFF012D5B
:1047500005D006E0384600F021FD0125F4E701F020
:10476000C7FB002056E770B505461446012902D064
:104770004FF0FF3070BD01F0C5FF064605F1140093
:10478000FFF74AFFAC83304601F0C0FF01F0B0FBF9
:10479000002070BD70B5044615460A460221204629
:1047A00001F0E0FA20461430406000600120A08350
:1047B00000202062FF21A177E077657270BD10B5FF
:1047C000044604F11400FFF727FF204601F0E8FA41
:1047D000002010BD10B50C460146022001F0EEFA93
:1047E00000280BD000F11401496009600121818388
:1047F00000210162FF228277C177447210BD10B59B
:10480000044604F11400FFF707FF204601F0FBFA0D
:10481000002010BD2DE9F341044601F099FC054646
:1048200001F070FF064600202863206AA84203D1E9
:10483000E07F401CE07744E0A08B50B1A08B401E8D
:10484000A083256295F83500A077E07F401CE077D3
:1048500037E0019850B3206A95F8351090F835206C
:10486000914204D205F13502022101F076FD627A0F
:10487000294604F11400FFF7A1FE0198002809DD84
:1048800005F14C0001AA0021074601F0C0FE3846A0
:1048900001F03FFE304601F039FF01F029FB286BA3
:1048A00060B10930C8D0286BBDE8FC816FF001040D
:1048B0002C63304601F02AFF2046F5E701F022FF85
:1048C0000646304601F022FF0020EDE72DE9F041D9
:1048D0000446002501F03CFC064601F013FF0746A4
:1048E000206AB04206D06C1E3463384601F00EFFD9
:1048F00020468FE6E17F491EC9B2E177B1B9A17FB9
:1049000090F83520914204D004F11E02022101F0FA
:1049100024FD04F11400064600F039FC60B1A08BC0
:10492000401CA08300202062FF20A077384601F0C1
:10493000EDFE012D0ED00FE060691438206290F872
:104940003500A077E07F401CE077304600F026FC81
:104950000125EBE701F0CCFA00205BE64FF0FF30D9
:10496000704770B5054614460A460321284601F0F3
:10497000F9F96C722C461434646024600020E861FC
:1049800070BD10B5044604F11400FFF745FE204643
:1049900001F006FA002010BD10B50C4601460320B8
:1049A00001F00CFA002806D0447200F114014960AD
:1049B00009600021C16110BD10B5044604F1140066
:1049C000FFF72AFE204601F01EFA002010BD2DE957
:1049D000F04704460D464FF0FF38002D0DD000275C
:1049E00001F090FE8246E0692843E06104F1140082
:1049F000814600F0CCFB18B128E04046BDE8F087C6
:104A0000656921E0A5F11400464690F84010CA07F8
:104A100005D0C16BE269914309D1002607E08907FF
:104A200005D5C16BE269114001D0C16300262D6834
:104A300056B990F84010490703D5E169C26B91431C
:104A4000E16101F088FB01274D45DBD1504601F0C3
:104A50005DFE012F01D101F04BFA0020CEE72DE9D8
:104A6000FF470546DDF830900E4690464FF0FF3088
:104A7000002E46D0074601F06BFB04460020206361
:104A800001F040FE82465FEAC87005D0E86936EA68
:104A9000000008D1002706E05FEA887003D5E869C6
:104AA000304200D0002777B3039868B3E66384F8F8
:104AB00040806A7A214605F11400FFF77FFD0398D4
:104AC000002809DD04F14C0003AA0021054601F08D
:104AD0009EFD284601F01DFD504601F017FE01F035
:104AE00007FA206B00280CD101F00CFE8246B9F1C8
:104AF000000F02D0E06BC9F80000504601F006FE3E
:104B0000206B04B07AE700E00DE0B9F1000F03D0AC
:104B1000E8693040C9F800005FEA4870EDD5E869FF
:104B2000B043E861E9E76FF001002063E5E770B5A5
:104B30000446012902D04FF0FF3070BD01F0E2FDC4
:104B4000054604F11400FFF767FD0020E0612846E8
:104B500001F0DCFD01F0CCF9002070BD2DE9F04141
:104B60000446069F16461D460A460421204601F0CB
:104B7000F9F867722046143040600060E6612584D1
:104B800000206084A084E08428346460246041E5CF
:104B900010B5044604F11400FFF73EFD04F12800AF
:104BA000FFF73AFD204601F0FBF8002010BD70B57C
:104BB0000D4616460146042001F000F90446200087
:104BC00014D06672143040600060A8B22084800067
:104BD00000F02AFFE06158B100206084A084E084E6
:104BE00004F1280040600060204670BD204670BD82
:104BF000204601F008F9002070BD10B5044604F10C
:104C00001400FFF709FD04F12800FFF705FDE06936
:104C100000F088FF204601F0F6F8002010BD2DE9D5
:104C2000F74F04468B46002601F092FA054601F044
:104C300069FD8046608C218C6FF0020A884201D1A8
:104C4000029808B100273BE0404601F05FFD504666
:104C5000BDE8FE8F2F630298F0B1627A294604F115
:104C60002800FFF7ABFC029800280CDDFFF7AFFB34
:104C7000064605F14C0002AA0021814601F0C7FC5E
:104C8000484601F046FC404601F040FD01F030F995
:104C9000286B30B1286BDBE7404601F037FD50460A
:104CA000D6E701F02FFD80460298002808DDFFF7C7
:104CB0008EFB861B0298801B0290002800DA029768
:104CC000608C218C8842C5D0A18CE06940F821B06D
:104CD000A08C401C80B2A084218C884200D3A78481
:104CE000608C401C608404F11400044600F04FFA0C
:104CF00020B1404601F00AFD0020A9E7204600F05F
:104D00004DFA404601F002FD01F0F2F800209FE765
:104D1000002284E72DE9F74F04468B46002601F078
:104D200017FA054601F0EEFC8046608C6FF0010A30
:104D300008B9029808B100273CE0404601F0E6FCC3
:104D4000504685E72F630298F0B1627A294604F154
:104D50001400FFF733FC029800280CDDFFF737FB47
:104D6000064605F14C0002AA0021814601F04FFCE5
:104D7000484601F0CEFB404601F0C8FC01F0B8F80F
:104D8000286B40B1286B63E7404601F0BFFC5046FA
:104D9000C5F830A05CE701F0B5FC80460298002819
:104DA00008DDFFF714FB861B0298801B0290002889
:104DB00000DA0297608C0028C4D0E18CE06950F8DA
:104DC0002100CBF80000E08C401C80B2E084218CF4
:104DD000884200D3E784608C401E608404F1280080
:104DE000044600F0D4F920B1404601F08FFC0020C9
:104DF0002EE7204600F0D2F9404601F087FC01F092
:104E000077F8002024E770B50446012902D04FF05E
:104E1000FF3070BD01F076FC054604F11400FFF789
:104E2000FBFB04F12800FFF7F7FB00206084A0845F
:104E3000E084284601F06AFC01F05AF8002070BDB9
:104E40002DE9F0410446DDE9066817461D460A468D
:104E50000521204600F086FF84F8098020461430A2
:104E600040600060E761ED1C4FF6FC700540258452
:104E70002D1DB6FBF5F060840022A262E26222637F
:104E8000002008E0218CE369091D00FB0131236B40
:104E90000B602163401C618C8142F3DCA284002002
:104EA00060E410B5044604F11400FFF7B5FB20469A
:104EB00000F076FF002010BD10B5044604F1140088
:104EC000FFF7AAFBE06900F02DFE204600F09BFFF3
:104ED000002010BD2DE9F0410D4616461F46014643
:104EE000052000F06BFF0446200016D067721430D6
:104EF00040600060ED1C4FF6FC7005402584B0B2A8
:104F000060842D1D684300F08FFDE06138B1002200
:104F1000A262E262226300200FE0204622E42046E3
:104F2000FFF7CAFF00201DE4218CE369091D00FB87
:104F30000131236B0B602163401C618C8142F3DCE7
:104F4000A28420460EE42DE9F04104460F461646A1
:104F5000208CB04202D24FF0FF3003E401F0D2FBCC
:104F6000256BA5B12968216301F0D0FB00202860E2
:104F700032463946281D00F069F901F0C3FB0646A8
:104F8000E06A00B10560E562A06A28B105E001F0C1
:104F9000BDFB6FF00200ACE4A562A08C401CA084B5
:104FA00004F11400044600F0F2F820B1304601F09C
:104FB000ADFB00209DE4204600F0F0F8304601F003
:104FC000A5FB00F095FF002093E42DE9F041044695
:104FD0000F461646208CB04202D24FF0FF3088E4D4
:104FE00001F090FB256B8DB12968216301F08EFBE8
:104FF00032463946281D00F029F901F083FB0646A8
:10500000A06A2860A562E06A28B105E001F07EFB95
:105010006FF002006DE4E562A08C401CA08404F1F6
:105020001400044600F0B3F820B1304601F06EFBE6
:1050300000205EE4204600F0B1F8304601F066FB47
:1050400000F056FF002054E42DE9FF5F044691462E
:10505000002601F07DF8054601F054FB0746A08CC0
:105060006FF0010B08B9039810B14FF0000840E051
:10507000384601F04BFB584604B0BDE8F09FC5F838
:1050800030800398F0B1627A294604F11400FFF7EA
:1050900095FA039800280CDDFFF799F9064605F10B
:1050A0004C0003AA0021824601F0B1FA504601F0FB
:1050B00030FA384601F02AFB00F01AFF286B40B1A5
:1050C000286BD9E7384601F021FB5846C5F830B0C7
:1050D000D2E701F017FB07460398002809DDFFF728
:1050E00076F9861B0398801B0390002801DACDF81F
:1050F0000C80A08C0028C2D0A56A2868A062E06A53
:10510000A84201D1C4F82C80A08C401EA08438464F
:1051100001F0FCFA208C484500D281464A46291D00
:10512000019800F093F801F0EDFA216B29602563F6
:1051300001F0ECFA00209FE770B50446012902D087
:105140004FF0FF3070BD01F0DDFA054604F11400A8
:10515000FFF762FA002108E00268A262E26A824276
:1051600000D1E162226B02602063A06A0028F3D1C3
:10517000A184284601F0CAFA00F0BAFE002070BDF2
:105180004268116042684A60416008607047016887
:10519000814201D1012070470020704710B500689E
:1051A000143800F0D8FF002010BD000010B501F049
:1051B000A9FA0B4A1178491C1170BDE8104001F0A2
:1051C000A5BA10B501F09EFA054A1178491E117072
:1051D000BDE8104001F09ABA01480078704700001D
:1051E000A411002010B5FFF7F7FFFC4C08B12068B0
:1051F00010BD00F0ADFF08B1006B10BD206810BD00
:1052000070B50446FFF7E8FFF44D08B12C6070BD9F
:1052100000F09EFF08B1046370BD2C6070BD10B536
:10522000FFF7DAFF08B1ED4810BD00F091FF08B1BB
:10523000303010BDE94810BD10B5034649B201E059
:1052400003F8011B521E541CFAD110BD30B50346A1
:1052500018468B4207D98C189C4204D307E011F8FA
:10526000014B03F8014B521E541CF8D130BD002AEB
:10527000FCD08C189D1814F8014C05F8014C521EF6
:10528000002AF6D130BD10B503461846814210D22F
:105290008C189C420DD9991803E014F8013D01F8CF
:1052A000013D521E531CF8D110BD11F8014B03F8FB
:1052B000014B521E541CF8D110BD10B5002306E05E
:1052C00003780C781B1B04D1401C491C521E002A79
:1052D000F6D1184610BD014600E0491C0A78002AA4
:1052E000FBD1081A7047F0B506460F463846FFF75F
:1052F000F2FF0546280004D03046FFF7ECFF0446D5
:1053000009E03046F0BD641E2A4639463046FFF7B4
:10531000D4FF20B1761CAC42F5DA0020F0BD304657
:10532000F0BD10B510F8012B11F8013BA2F14104BA
:10533000192C00D82032A3F14104192C00D82033B5
:105340009A4201D1002AEDD1D01A10BD10B5002A21
:1053500007D0034611F9014B03F8014B14B1521E5B
:10536000F8D110BD002101E003F8011B521EFBD152
:1053700010BD10B5002309E011F8013B90F9004081
:10538000E31A5BB223B9401C14B1521E002AF3D1B8
:10539000184610BD01E0401C491C90F900201AB1CC
:1053A00091F900309A42F6D090F9000091F900107E
:1053B000401A7047024600E0521C137813B1131ACA
:1053C0008B42F9D3101A704770B506463046FFF786
:1053D00082FF451C284600F027FB044634B12A46CC
:1053E00031462046FFF732FF204670BD002070BDD9
:1053F00070472DE9FF4FDDE90DB60F9D6C0602D514
:10540000DFF8DCA103E0DFF8D8A1AAF1110AEC066D
:1054100001D525F00105EC0702D04FF0300901E07D
:105420004FF020090027AC070BD5002A02DA2D2700
:10543000524206E06C0701D52B2702E02C0700D56D
:1054400020270024EE467AB9302201248DF800206E
:105450000CE00A2B15D002F00F081209A4461AF826
:105460000880641C0EF80C80002AF2D1B44200DDE2
:105470002646ABEB060215F0110F4FF0200309D0C2
:1054800016E04FF00A0CB2FBFCF80CFB1828B2FB3C
:10549000FCF2E3E73FB1002A05DD521E03E088423B
:1054A00000D80370401CB2F1000CA2F10102F6DC3E
:1054B00027B1884201D80770521E401CED0605D561
:1054C00008E0884201D880F80090401C151EA2F127
:1054D0000102F6DC302703E0884200D80770401C48
:1054E0003546761EA542F7DC05E0884202D81EF854
:1054F00004500570401C251EA4F10104F5DC03E0F6
:10550000884200D80370401C141EA2F10102F7DC8F
:1055100004B0BDE8F08F2DE9FF4F83B082460AEB5F
:1055200001077F1E5446A74201D24FF0FF374FF0CC
:1055300020094FF0250B1DE1252804D0BC4200D8DE
:105540002070641C13E100250599491C059191F90F
:1055500000002D2815D02B2816D0202817D023285E
:1055600018D0302819D04FF0FF384646059A92F9E6
:105570000020303A0A2A13D205A800F098F906460E
:105580001AE045F01005DFE745F00405DCE745F0DB
:105590000805D9E745F02005D6E745F00105D3E732
:1055A0002A2809D1491C0591069840C80690002E6A
:1055B00002DA764245F01005059801782E291ED1B1
:1055C000401C059090F90010A1F130020A2A09D27E
:1055D00005A800F06CF980460CE00000A81100203E
:1055E00095EF00082A2905D1401C0590069850F82F
:1055F000048B0690B8F1000F01DA4FF0000800218B
:10560000059890F90020682A01D06C2A02D110F880
:10561000011B05900A23059890F900006F2872D0AD
:105620000CDC632821D004DC25286DD058280DD14E
:1056300088E0642801D0692808D187E0702864D008
:10564000732830D0752872D078287DD0BC4201D81C
:1056500084F800B0641C059991F90000002868D016
:10566000BC4200D82070641C81E0E80605D507E044
:10567000BC4201D884F80090641C761E002EF7DC32
:10568000069810F8041B069048B2BC4200D820705F
:10569000641C04E0BC4201D884F80090641C761EAF
:1056A000002EF7DC63E0069808C8069003B98BA3C8
:1056B0001846FFF710FEB8F1000F02DD404500DD8F
:1056C0004046E90605D508E0BC4201D884F80090C0
:1056D000641C3146761E8142F6DC002106E0BC42A5
:1056E00001D81A782270641C5B1C491C8142F6DBCD
:1056F00004E0BC4201D884F80090641C3146761E58
:105700008142F6DC33E01BE014E0701C02D1082675
:1057100045F00105CDE9006806980295102304C8FC
:10572000069039462046FFF764FE04461FE00FE06E
:105730000AE029E0BC4201D884F800B0641C16E0FD
:10574000082305E045F04005102301E045F002057F
:105750006C291CD068291ED0069804C80690CDE993
:105760000068394620460295FFF743FE0446059837
:10577000401C0590059890F9000000287FF4DCAEED
:10578000BC4211D8207010E0491E0591EFE7069841
:1057900004C80690E3E7069830F8041B06908AB226
:1057A000A807DCD512B2DAE73870A4EB0A0007B01C
:1057B000AFE60FB408B503AB00937F214948029AC6
:1057C000FFF7A9FE4748FCF733FA01B05DF814FB78
:1057D00008B545A0FFF7EDFF46A0FFF7EAFF4EA092
:1057E00003230090002219464EA0FFF7E2FFBDE818
:1057F000084054A0DDE70FB410B505AB049AFFF7DD
:105800008AFE10BC5DF814FB17B40A46029B03B075
:105810004FF0FF3110BC7EE60FB410B504AA039917
:10582000FFF7F2FFEDE710B5002801D0FCF700FA12
:1058300010BD10B5C91C21F00304C01C20F00300EA
:10584000204400F0F1F800280BD0611E084201D17D
:10585000011903E00219521E22EA010141F8040C69
:10586000084610BD50F8040C00F05CB9002807D0C1
:105870003F4910F0FF0F05D0C0B2085C401C7047D4
:105880000020704710F47F4F04D0C0F30720085C5D
:105890000930704710F47F0F04D0C0F30740085C54
:1058A0001130704701EB106000781930704710B567
:1058B000024600206FF02F0408E04B1C136091F9A2
:1058C000001000EB800004EB40000844116891F9DF
:1058D0000030303B0A2BF0D310BD0000284E554C51
:1058E0004C290000FC4900200A205C207C202F0A63
:1058F000000000002D205254202D20202020205474
:105900006872656164204F7065726174696E6720AA
:1059100053797374656D0A0041707220203820320B
:1059200030323000202F207C205C202020202025B9
:10593000642E25642E2564206275696C64202573AD
:105940000A0000002032303036202D20323031382D
:1059500020436F707972696768742062792072746D
:105960002D746872656164207465616D0A000000C1
:1059700084EE000830B5CD4C41682268114402F134
:10598000080388420DD04D885DB96568A94208D0EA
:10599000A5688D4200D1A0604D6845604968851AB0
:1059A000CD508168114481420BD04D88002D08D123
:1059B000A568854200D1A16044684C604068891A9E
:1059C000C15030BD70B505460A46E81C20F0030101
:1059D00022F00303182B21D9A3F118048C421DD304
:1059E000B24C5A1A183AE26021604FF4F5530B801A
:1059F0000C324A6000208860488048680844606033
:105A00000380012141804260826000230122A8A11D
:105A1000A948FEF718FE2068A06070BD2946BDE8C1
:105A20007040A6A0FFF7C5BE2DE9F047002809D0B9
:105A3000C01C20F003059D4EF068854204D900206B
:105A4000BDE8F0870020FBE70C2D00D20C254FF0BD
:105A5000FF319948FEF72FFEB7683168781AD6F8FB
:105A60000CC0ACEB050356E00C1862888ABB626878
:105A7000121A0C3AAA424DD3626805F11803121AA1
:105A80000C3A4FF001094FF4F5589A4222D34319CA
:105A90000C33CA18A2F800804FF0000AA2F802A046
:105AA000D4F804A0C2F804A090606360A4F8029047
:105AB00050680CF10C0C604502D001F108028350D3
:105AC000306928440C303061726982420ED27061B4
:105AD0000CE01FE0A4F802906068621A801A326934
