:020000040800F2
:10000000F8F50020450100084D0100088B6C000840
:1000100051010008530100085501000800000000CC
:100020000000000000000000000000005701000870
:100030005901000800000000136C0008071D0008AB
:100040005F0100085F0100085F0100085F01000810
:100050005F0100085F0100085F0100084D200008F3
:100060005F0100085F0100085F0100085F010008F0
:100070005F0100085F0100085F0100085F010008E0
:100080005F0100085F0100085F0100085F010008D0
:100090005F0100085F0100085F0100085F010008C0
:1000A0005F0100085F0100085F0100085F010008B0
:1000B0005F0100085F0100085F0100085F010008A0
:1000C0005F0100085F0100085F0100085F01000890
:1000D0005F0100086B220008692D00086B9D000875
:1000E0005F0100085F0100085F0100085F01000870
:1000F0005F0100085F0100085F0100085F01000860
:100100005F0100085F0100085F0100085F0100084F
:100110005F0100085F0100085F010008D52C00089E
:100120005F0100085F0100085F0100085F0100082F
:10013000DFF80CD00CF098FD00480047B3490008E8
:10014000F8F500200648804706480047FEE7FEE72E
:10015000FEE7FEE7FEE7FEE7FEE7FEE7FEE7FEE777
:1001600011020008310100080CB500220192009232
:100170005248016841F4803101604FF4A063016886
:1001800001F4003100910199491C0191009911B9C4
:1001900001999942F3D10168890302D501210091A7
:1001A00000E000920099012930D145490A6842F0E7
:1001B00010020A600A6822F003020A600A6842F02C
:1001C00002020A604168416041684160416841F44F
:1001D00080614160416821F47C114160416841F4D3
:1001E000E8114160016841F0807101600168890196
:1001F000FCD5416821F003014160416841F00201F2
:1002000041604168C1F381010229FAD10CBDABE71D
:1002100010B52A48016841F0010101604168294A8E
:10022000114041600168284A11400160016821F4D1
:1002300080210160416821F4FE0141604FF41F01FB
:100240008160FFF7E4FF21494FF00060086010BDB6
:1002500010B51A4A506800F00C011D4B1D480029CA
:100260000ED004290ED008290ED003605168194A17
:10027000C1F30311121D515C0268CA40026010BD37
:100280000360F3E70360F1E7516801F4701153680C
:1002900003F48033022404EB914133B153689B0390
:1002A00007D50D4B59430160E0E70B4B5943016003
:1002B000DCE7074B59430160D8E70000001002401B
:1002C000002002400000FFF8FFFFF6FE08ED00E00E
:1002D00000127A000000002000093D002A4908436E
:1002E0002A490860704770B50F23C278012601784B
:1002F000002A1ED0254A126802F4E062C2F5E062CC
:10030000120AC2F10404D3404578A54082781A400D
:100310002A43120101F1E02181F80024007800F065
:100320001F018E404009800000F1E020C0F800610C
:1003300070BD01F01F0086404809800000F1E020F8
:10034000C0F8806170BD124A114001430F48001F80
:10035000016070470D4A121D002903D01168014346
:100360001160704711688143116070474FF0E021C0
:10037000042804D0086920F0040008617047086967
:1003800040F00400086170470000FA050CED00E041
:1003900080FFFF1F384900200860091D0860091D03
:1003A0000860091D086034493448143108607047FA
:1003B00030B5314A83790168002B2AD013688B430A
:1003C0001360111D0B680468A3430B60017911448D
:1003D0000B68046823430B60274C083421680368CA
:1003E00099432160231D19680568A9431960417963
:1003F000102905D011440A68006802430A6030BD24
:10040000216802681143216019680068014319607E
:1004100030BD0079104402688A43026030BD00217B
:10042000016001710C2242718171704712491031D3
:100430000A6802430A607047014600200E4A1432DF
:1004400012680A4200D0012070470B49143108603D
:10045000704701460020084A12680A40064B1433D0
:100460001B680B4202D0002A00D0012070470249CD
:10047000143108607047000000040140FFFF0F00C6
:1004800010B59C49884209D10121042000F07DFA71
:100490000021BDE81040042000F077BA9649884258
:1004A00009D10121082000F070FA0021BDE81040B8
:1004B000082000F06ABA9149884209D10121102030
:1004C00000F063FA0021BDE81040102000F05DBA92
:1004D0008B49884209D10121202000F056FA0021E1
:1004E000BDE81040202000F050BA8649884209D16A
:1004F0000121402000F049FA0021BDE810404020D1
:1005000000F043BA8049884209D10121802000F0DF
:100510003CFA0021BDE81040802000F036BA7B494B
:1005200088420AD184150121204600F02EFA204687
:10053000BDE81040002100F028BA10BD10B501211F
:10054000084600F022FA0021BDE81040012000F02A
:100550001CBA2DE9F0410022CC7804F00F03E40628
:1005600001D58C7823430C784FF00F0714F0FF0F60
:100570004FF0010C1CD005680CFA02F40E882640DE
:10058000A64211D1960007FA06F825EA080503FAF3
:1005900006F848EA0505CE78282E02D0482E02D06B
:1005A00002E0446100E00461521C082AE4D30560C3
:1005B0000A88FF2A1ED94568002202F108060CFAB3
:1005C00006F40E882640A64210D1960007FA06F8D7
:1005D00025EA080503FA06F848EA0505CE78282E2C
:1005E00000D14461CE78482E00D10461521C082A03
:1005F000E3D34560BDE8F0814FF6FF710180022131
:1006000081700421C17070470246002092680A423E
:1006100000D001207047806880B2704702460020F9
:10062000D2680A4200D001207047C06880B270478B
:100630000161704741617047002A01D00161704734
:1006400041617047C160704741F4803282618161CD
:10065000826181698069704710B52D4B1A684FF629
:100660008074224042EA00100843186010BD2949F6
:10067000C8617047F0B5264C002801DAE36900E054
:100680006368C0F30346420D120185B2C0F30157FF
:100690009540032F07D0C2020CD50322B2409343EA
:1006A00043F0706209E023F07062636823F07063C6
:1006B000636002E0AB4343F0706201B12A4300285B
:1006C00001DAE261F0BD6260F0BD10B58A07120F79
:1006D0000F23934021F003040D4921448C689C436F
:1006E0008C608B68904003438B6010BD0949DC31FE
:1006F0000860704700080140000C014000100140F4
:100700000014014000180140001C0140002001407D
:100710000000014000002042B448016841F001019E
:1007200001604168B24A114041600168B14A11401C
:100730000160016821F480210160416821F4FE011B
:1007400041604FF41F0181607047A8490A6822F494
:1007500080320A600A6822F480220A60B0F5803F85
:1007600007D0B0F5802F03D1086840F4A0200860BE
:100770007047086840F480300860704703460020E6
:1007800059099A4A01290AD002290AD0516A03F06C
:100790001F02012393400B4200D0012070471168D3
:1007A000F5E7116AF3E718B5002000904FF4A06454
:1007B0003120FFF7E3FF0099491C00910099A14205
:1007C00001D00028F4D03120FFF7D8FF08B1012074
:1007D00018BD002018BD854A116821F0F80141EAD2
:1007E000C000106070478449086070477F4B5A68AA
:1007F00022F47C1208431043586070477E49086613
:1008000070477A4A516821F00301014351607047F3
:100810007648406800F00C007047744A516821F037
:10082000F001014351607047704A516821F4E06162
:100830000143516070476D4A516821F4605141EAAB
:10084000C00050607047694A002903D0517A0143C3
:1008500051727047517A8143517270476649D8315D
:1008600008607047614A516821F44041014351607A
:1008700070475E49002220310A7001F820290128C2
:1008800005D0042802D1052081F8200070470120FE
:1008900081F82000704759490860704753490A6A37
:1008A00002430A627047554944390860704710B5E1
:1008B0004E4A516801F00C01514B002927D0042900
:1008C00027D0082927D00360516801F0F0010909F9
:1008D0004C4B5C5C0168E1404160546804F4E064A6
:1008E000240A1C5D21FA04F48460546804F4605402
:1008F000E40A1B5DD940C160526802F44042920B89
:10090000404B1B1F9A5CB1FBF2F1016110BD03600B
:10091000DAE70360D8E7516801F47011536803F413
:100920008033022404EB914133B153689B0307D514
:10093000354B59430160C7E7334B59430160C3E767
:100940002F4B59430160BFE7284A002903D0516962
:100950000143516170475169814351617047234A96
:10096000002903D0916901439161704791698143E6
:10097000916170471D4A002903D0D1690143D161BB
:100980007047D1698143D1617047184A002903D06B
:10099000D1680143D1607047D1688143D16070470D
:1009A000124A002903D0116901431161704711698E
:1009B00081431161704711494039086070470E4901
:1009C000C86470470949C87170470848416A41F0D6
:1009D00080714162704701460020044A92680A42D1
:1009E00000D0012070470149887270470010024012
:1009F0000000FFF8FFFFF6FE000042428004424282
:100A000000127A001800002000093D0010B5A94925
:100A100088420AD1841401212046FFF7B6FF204600
:100A2000BDE810400021FFF7B0BFA34988420AD1BA
:100A3000041401212046FFF7B3FF2046BDE8104013
:100A40000021FFF7ADBF9D4988420AD1C41301219F
:100A50002046FFF7A5FF2046BDE810400021FFF724
:100A60009FBF10BD30B5028802F441530A884C88FC
:100A7000CD8822438C882C4322430C8922434C8905
:100A800022438C892243CC8922431A430280828BE1
:100A900022F400628283098A018230BDF0B585B0FC
:100AA00005460C46022000210126AA8B4FF2400386
:100AB0001A40AA8302222A84AF8BA268022A21D07C
:100AC000A08800B102266846FFF7F1FE0098E18891
:100AD000B1F5007F2CD07101B0FBF1F000EB80008C
:100AE000A1684000B0FBF1F0401D80B20A21B0FBCC
:100AF000F1F000F00101401AC0F34F004FF6FF7211
:100B000002EA0121821EFE2A01D302200021E2888E
:100B1000084302432A8420886188A2890843A18867
:100B200011430843384340F40060A88305B0F0BD8A
:100B3000000A00EB8000A1684000B0FBF1F0401D0E
:100B400080B2D3E70021018041808180C180018192
:100B500041818181C181072101827047002101808B
:100B600041808180C180022282608181704700299A
:100B700004D0018841F0400101807047018821F0D4
:100B8000400101807047002904D0818B41F48061CD
:100B900081837047818B21F48061818370470909CB
:100BA00001238B4099B2002A03D082880A438280B5
:100BB000704782888A4382807047002A03D08288E7
:100BC0000A438280704782888A438280704781818D
:100BD000704780897047A1F57E42FF3A04D00188B2
:100BE00041F4807101807047018821F48071018097
:100BF0007047002904D0818841F00401818070474A
:100C0000818821F0040181807047028822F400620B
:100C1000028002880A4302807047018841F48051B3
:100C200001807047002904D0018841F400510180FF
:100C30007047018821F4005101807047012901D0DB
:100C4000008B7047808A7047008A7047B1F5804FEB
:100C500004D0018821F4804101807047018841F46B
:100C60008041018070470246002012890A4200D06C
:100C700001207047C9430181704730B5024600200A
:100C800001F00F03012505FA03F4A3B2090905FADF
:100C900001F4A4B29188214012891A4202D000299D
:100CA00000D0012030BD01F00F0201219140C94365
:100CB000018170470030014000380040003C004096
:100CC00010B5FE4988420AD1C41401212046FFF71D
:100CD0005CFE2046BDE810400021FFF756BEB0F193
:100CE000804F0CD0F649884213D101210220FFF732
:100CF00057FE0021BDE810400220FFF751BE012140
:100D00000846FFF74DFE0021BDE810400120FFF727
:100D100047BEEC49884209D101210420FFF740FE7B
:100D20000021BDE810400420FFF73ABEE6498842A2
:100D300009D101210820FFF733FE0021BDE8104052
:100D40000820FFF72DBEE149884209D1012110207A
:100D5000FFF726FE0021BDE810401020FFF720BE5F
:100D6000DB49884209D101212020FFF719FE00212B
:100D7000BDE810402020FFF713BED64988420AD1B3
:100D8000441401212046FFF700FE2046BDE8104034
:100D90000021FFF7FABDD04988420AD10121CC04D5
:100DA0002046FFF7F2FD2046BDE810400021FFF786
:100DB000ECBDCA4988420AD101210C052046FFF743
:100DC000E4FD2046BDE810400021FFF7DEBDC44928
:100DD00088420AD101214C052046FFF7D6FD204666
:100DE000BDE810400021FFF7D0BDBE49884209D1BF
:100DF00001214020FFF7D4FD0021BDE81040402034
:100E0000FFF7CEBDB849884209D101218020FFF704
:100E1000C7FD0021BDE810408020FFF7C1BDB349E8
:100E200088420AD1841501212046FFF7B9FD2046EA
:100E3000BDE810400021FFF7B3BDAD4988420AD19B
:100E400001210C042046FFF7A0FD2046BDE810401C
:100E50000021FFF79ABDA74988420AD101214C041D
:100E60002046FFF792FD2046BDE810400021FFF725
:100E70008CBDA14988420AD101218C042046FFF78C
:100E800084FD2046BDE810400021FFF77EBD10BD67
:100E900030B50288894C8F4DA0420DD0A8420BD0AE
:100EA000B0F1804F08D0864B984205D0854B9842D0
:100EB00002D0854B984203D122F070034A881A432E
:100EC000824B984206D0824B984203D022F4407362
:100ED000CA881A4302808A8882850A880285A042CD
:100EE0000AD0A84208D0824A904205D0814A904256
:100EF00002D0814A904201D1097A01860121818282
:100F000030BD30B5028C22F001020284028C83884D
:100F1000048B24F0700424F003050C882C4322F089
:100F200002020D8915434A882A43644DA8420BD01A
:100F3000684DA84208D06E4DA84205D06D4DA8421C
:100F400002D06D4DA8420FD122F008054A892A43EC
:100F500022F004058A882A4323F4807323F4007363
:100F60008D891D43CB892B4383800483C988818667
:100F7000028430BD70B5028C22F010020284028C13
:100F80008388048B24F4E04424F440760D884FF6E3
:100F9000FF7404EA0525354322F020020E8904EA95
:100FA000061616434A8804EA02123243434EB04200
:100FB00002D0484EB04217D122F080024E8904EA96
:100FC0000616164326F040068A8804EA02123243C7
:100FD00023F4806323F400638E8904EA86061E43AB
:100FE000CB8904EA8303334383800583C98801875F
:100FF000028470BD70B5028C22F480720284028C6F
:101000008388848B24F0700424F003040D88254326
:1010100022F400720E894FF6FF7404EA0626164386
:101020004A8804EA02223243244EB04202D0294EBA
:10103000B04217D122F400664A8904EA0222324300
:1010400022F480668A8804EA0222324323F4805321
:1010500023F400538E8904EA06161E43CB8904EA62
:101060000313334383808583C9888187028470BDDD
:1010700070B5028C22F480520284058C8288838BA6
:1010800023F4E04323F440760C884FF6FF7303EA21
:101090000424344325F400550E8903EA06362E4312
:1010A0004D8803EA05353543044EB04202D0094E5F
:1010B000B04226D122F480468A891FE0002C0140EC
:1010C0000004004000080040000C004000100040F8
:1010D0000014004000340140004C01400050014029
:1010E0000054014000180040001C00400020004057
:1010F00000400140004401400048014003EA8212E0
:10110000324382808483C988A0F84010058470BD72
:10111000828B22F440628283828B4FF6FF7303EA54
:1011200001210A4382837047F0B5048C24F4805473
:101130000484868B048C4FF6FF7505EA013726F48C
:10114000734605EA0222324305EA03331343F74AA2
:1011500090420ED0F64A90420BD0B0F1804F08D0AA
:10116000F44A904205D0F44A904202D0F34A9042A9
:1011700005D124F40051394341F4805104E024F4B2
:1011800002420A4342F4805183830184F0BD828B82
:1011900022F00C028283828B0A4382837047F0B56F
:1011A000048C24F480740484858B048C4FF6FF77C0
:1011B00007EA012625F0F30507EA031313432B433F
:1011C000DA4A90420ED0DA4A90420BD0B0F1804F0A
:1011D00008D0D84A904205D0D74A904202D0D74A88
:1011E000904205D124F40071314341F4807104E050
:1011F00024F420620A4342F4807183830184F0BDA9
:10120000028B22F440620283028B4FF6FF7303EAE3
:1012100001210A4302837047F0B5048C24F01004C6
:101220000484068B048C4FF6FF7505EA011726F43B
:10123000734605EA0333334305EA02221A43BB4BE4
:1012400098420ED0BA4B98420BD0B0F1804F08D0E4
:10125000B84B984205D0B84B984202D0B74B984251
:1012600005D124F02001394341F0100104E024F0BD
:10127000A0030B4343F0100102830184F0BD028BF5
:1012800022F00C020283028B0A430283704770B57E
:10129000048C24F001040484058B048C25F0F305F0
:1012A0004FF6FF7606EA031313432B439F4A9042FF
:1012B0000ED09F4A90420BD0B0F1804F08D09D4A8B
:1012C000904205D09C4A904202D09C4A904205D15F
:1012D00024F002020A4342F0010104E024F00A0271
:1012E0000A4342F001010383018470BD70B50546D5
:1012F0000C468E48854209D08D48854206D0B5F10E
:10130000804F03D08B48854200D08B48208861886D
:10131000A288238958B1042811D0082817D028465C
:10132000FFF702FFE1882846BDE87040F0E6284656
:10133000FFF7ADFFE1882846BDE870409FE72846EB
:10134000FFF76AFFE1882846BDE8704058E7284665
:10135000FFF725FFE1882846BDE8704017E72DE933
:10136000F04107460C46002501266188002900D17E
:101370000225A288012A00D102262088238988B16B
:101380003846FFF749FFE1883846FFF739FF2389E0
:10139000324629463846FFF77AFFE1883846BDE8ED
:1013A000F0416CE73846FFF772FFE1883846FFF7F7
:1013B00066FF2389324629463846FFF72DFFE1882C
:1013C0003846BDE8F0411BE710B50A884B88CC8849
:1013D0001A438B8823431A430B891A434B89898903
:1013E0001A430A43A0F8442010BD4FF6FF718180D4
:1013F00000210180C180418001727047002101807D
:1014000041808180C180018141818181C18170479A
:1014100000210180418001228280C18001817047CA
:101420000021018041808180C180018141818181D1
:101430007047002904D0018841F001010180704704
:10144000018821F0010101807047002905D030F8A2
:10145000441F41F400410180704730F8441FC1F33C
:101460000E0101807047002A03D082890A438281DD
:10147000704782898A438281704781827047114315
:10148000A0F848107047002A03D082890A4382815D
:10149000704782898A4382817047018921F0070160
:1014A00001817047028922F070020A43028170476D
:1014B00000B503461846FFF7F5FF188940F007000E
:1014C000188100BD70B50D4604461146602D0CD044
:1014D00001222046FFF7DBFE29462046FFF7E2FF08
:1014E000208940F00700208170BD01222046FFF7CF
:1014F00093FEF1E730B50489E4B24FF6FF7505EAD3
:10150000032313430B432343038130BD10B504462B
:101510002046FFF7EFFF208920F0070040F007008A
:1015200020F0700040F07000208110BD002C0140C0
:10153000003401400004004000080040000C00405E
:1015400010B504462046FFF7D5FF208940F48040BF
:101550002081EAE7018582827047028822F07002CA
:101560000A430280704770B50589048B068C25F00C
:1015700007050D434FF6FC410C4040F201110C43AE
:1015800026F022064FF6FF7101EA031111433143A1
:1015900005810483018470BD028B22F070020A432E
:1015A00002837047028B22F4E0424FF6FF7303EA96
:1015B0000121114301837047828B22F070020A439C
:1015C00082837047828B22F4E0424FF6FF7303EA76
:1015D0000121114381837047002904D0018841F023
:1015E000800101807047018821F0800101807047EF
:1015F000002904D0818841F00401818070478188EE
:1016000021F0040181807047002904D0818841F0D5
:10161000080181807047818821F00801818070472E
:10162000002904D0818841F00101818070478188C0
:1016300021F0010181807047028B22F008020A43E9
:1016400002837047028B22F400624FF6FF7303EAB5
:101650000121114301837047828B22F008020A4363
:1016600082837047828B22F400624FF6FF7303EA95
:101670000121114381837047028B22F004020A4347
:1016800002837047028B22F480624FF6FF7303EAF5
:101690000121114301837047828B22F004020A4327
:1016A00082837047828B22F480624FF6FF7303EAD5
:1016B0000121114381837047028B22F080020A438B
:1016C00002837047028BC2F30E024FF6FF7303EAE8
:1016D0000121114301837047828B22F080020A436B
:1016E00082837047828BC2F30E024FF6FF7303EAC8
:1016F0000121114381837047028C22F002020A43C8
:1017000002847047028C22F008020A430284704768
:10171000028C22F020024FF6FF7303EA01111143FD
:1017200001847047028C22F080024FF6FF7303EAB7
:101730000111114301847047028C22F400724FF6AC
:10174000FF7303EA0121114301847047028C22F4E4
:1017500000624FF6FF7303EA0121114301847047D1
:10176000028C22F400524FF6FF7303EA0131114359
:101770000184704710B501238B40048C9C43048482
:10178000038C8A4013430384CFE610B504238B40B7
:10179000048C9C430484038C8A4013430384C4E672
:1017A00030B500F1180301248C40058CA543058455
:1017B000002911D008290FD0091FC1F34E00184489
:1017C000016821F4E041016001684FF6FF7303EA0C
:1017D00002221143016030BD03EB5100016821F08A
:1017E0007001016001681143016030BD002904D01F
:1017F000018841F0020101807047018821F0020157
:1018000001807047002904D0018841F00401018063
:101810007047018821F0040101807047002904D03D
:10182000818841F0800181807047818821F08001AA
:1018300081807047028822F00802028002880A43F1
:1018400002807047828822F07002828082880A4378
:1018500082807047028922F00702028102890A43CE
:1018600002817047028922F08002028102890A43C4
:1018700002817047818470478185704781867047F7
:101880000187704781877047A0F840107047028831
:1018900022F44072028002880A4302807047808EE0
:1018A0007047008F7047808F7047B0F840007047D6
:1018B000808C7047008D704702460020128A0A42D1
:1018C00000D001207047C9430182704702460020C2
:1018D000138A0B4092890A40002B02D0002A00D0C4
:1018E00001207047C94301827047000010B5E149EB
:1018F00088420AD101218C032046FFF746F8204692
:10190000BDE810400021FFF740B8DB4988420AD10A
:1019100001214C042046FFF743F82046BDE8104063
:101920000021FFF73DB8D54988420AD101218C0436
:101930002046FFF735F82046BDE810400021FFF7AC
:101940002FB8CF4988420AD10121CC042046FFF7A5
:1019500027F82046BDE810400021FFF721B8C9490B
:1019600088420AD101210C052046FFF719F82046CC
:10197000BDE810400021FFF713B810BD30B585B0A9
:1019800004460D46208A4CF6FF710840E988014361
:101990002182A0894EF6F3110840A9882A891143B3
:1019A0006A8902431143A181A08A4FF6FF41084092
:1019B000A9890143A1826846FEF779FFAD488442B8
:1019C00001D1039800E00298A189090408D500EB31
:1019D000C00101EB001029684900B0FBF1F007E0FD
:1019E00000EBC00101EB001029688900B0FBF1F0A9
:1019F0006422B0FBF2F109010B096FF018056B438B
:101A000000EB8300A3891D044FF0320307D503EBDD
:101A1000C000B0FBF2F000F00700084306E003EB63
:101A20000010B0FBF2F000F00F000843208105B079
:101A300030BD4FF41651016000218180C1800181C9
:101A40000C2242818181704710B5038A4FF2FF0258
:101A500013400A884C8822438C88C9880C4322434F
:101A60001A43028210BD0021018041808180C18023
:101A70007047002904D0818941F400518181704769
:101A8000818921F400518181704710B540F66A13B5
:101A9000C1F3421301F01F040121A140012B07D023
:101AA000022B07D014303AB102680A43026010BD1D
:101AB0000C30F8E71030F6E702688A43026010BD88
:101AC000002A03D0828A0A4382827047828A8A432C
:101AD00082827047028A22F00F020282028A0A433F
:101AE00002827047828922F40062828182890A43DD
:101AF00082817047002904D0818941F002018181EF
:101B00007047818921F0020181817047028A22F0A9
:101B100020020282028A0A4302827047002904D00E
:101B2000018A41F4804101827047018A21F4804199
:101B300001827047C1F30801818070478088C0F33B
:101B400008007047818941F0010181817047028B53
:101B5000D2B20283028B42EA012101837047028BD9
:101B600002F47F420283028B0A43028370470029FA
:101B700004D0818A41F0200181827047818A21F05E
:101B8000200181827047002904D0818A41F0100130
:101B900081827047818A21F010018182704700297B
:101BA00004D0818A41F0080181827047818A21F046
:101BB000080181827047002904D0818941F40041E5
:101BC000818170478189C1F30E01818170470029AD
:101BD00004D0818A41F4006181827047818A21F4B6
:101BE000006181827047828A22F004028282828AA6
:101BF0000A4382827047002904D0818A41F00201A1
:101C000081827047818A21F00201818270470246F9
:101C1000002012880A4200D0012070478A05C9437B
:101C20000180704770B5002440F66A12C1F3421378
:101C300001F01F05012606FA05F2012B0CD0022B3C
:101C40000DD0838A1340090A8E40008830400BB1C2
:101C500000B10124204670BD83891340F3E7038A55
:101C60001340F0E740F66A120A0A01219140C94385
:101C700001807047003801400044004000480040A7
:101C8000004C0040005000403648704736487047CE
:101C900010B536484FF47A710068B0FBF1F0B0F13E
:101CA000807F0CD220F07F414FF0E020491E41613F
:101CB0002F4AF0211170002181610721016100F09C
:101CC000E1F900F022FA00F007FB01F003F900F05F
:101CD000E5FF07F0DDFD07F055FD4FF4A060FEF7CE
:101CE000FDFA4FF4614001F06AF800F009FB02F0E0
:101CF0001FFEFFF7CBFF0446FFF7C6FF2146BDE8F6
:101D0000104004F0CFB810B503F0C6FC02F0E2FDBD
:101D1000BDE8104003F0CBBC70B5044604F0D2FB24
:101D2000144D17E00A2809D10D212846FFF702FFBC
:101D300080212846FFF76BFF0028F9D014F9010B2A
:101D400081B22846FFF7F6FE80212846FFF75FFFA5
:101D50000028F9D094F900000028E3D1BDE87040D4
:101D600004F0BBBBD4130020D4B30020000000203B
:101D700023ED00E0003801402DE9FC4100230A2258
:101D80004FF480613AA003F01BFB3C49086018B196
:101D90003BA003F084FF02E041A003F080FF00229B
:101DA000052147A003F079F94749086018B147A019
:101DB00003F075FF02E04DA003F071FF032514242A
:101DC000CDE90054AE0233460022504950A004F041
:101DD00085FC5149086028B104F04BFC4FA003F08A
:101DE0005EFF02E054A003F05AFFCDE900543346F1
:101DF0000022584958A004F071FC5949086028B1E4
:101E000004F037FC57A003F04AFF02E05CA003F0A7
:101E100046FF0826CDE90064B7013B4600225F4932
:101E20005FA004F05BFC624D286030B161A003F05C
:101E300036FF286804F01DFC02E066A003F02FFFC7
:101E4000CDE900643B4600226A496BA004F046FCE1
:101E50006B4C206030B16BA003F021FF206804F0D0
:101E600008FC02E070A003F01AFF0020BDE8FC812E
:101E7000776D736773656E64000000006013002067
:101E80000D0A776D736773656E6420CFFBCFA2B6C2
:101E9000D3C1D0B4B4BDA8B3C9B9A6A3A10D0A00DB
:101EA0000D0A776D736773656E6420CFFBCFA2B6A2
:101EB000D3C1D0B4B4BDA8CAA7B0DCA3A10D0A0099
:101EC000776D736772656300641300200D0A776D88
:101ED000736772656320CFFBCFA2D3CACFE4B4B4DB
:101EE000BDA8B3C9B9A6210A0A0000000D0A776D82
:101EF000736772656320CFFBCFA2D3CACFE4B4B4BB
:101F0000BDA8CAA7B0DC210A0A00000045BD000830
:101F1000776D736773740000C41300200D0A776D2A
:101F20007367737420CFDFB3CCB4B4BDA8B3C9B9A1
:101F3000A6210A0A000000000D0A776D736773740A
:101F400020CFDFB3CCB4B4BDA8CAA7B0DC210A0A45
:101F5000000000002BBE0008776D736772740000EC
:101F6000C81300200D0A776D7367727420CFDFB33A
:101F7000CCB4B4BDA8B3C9B9A6210A0A00000000B8
:101F80000D0A776D7367727420CFDFB3CCB4B4BD24
:101F9000A8CAA7B0DC210A0A000000009B4700087D
:101FA00046526F70656E5F74687265616400000010
:101FB000641200200D0A46526F70656E5F7468727D
:101FC00065616420CFDFB3CCB4B4BDA8B3C9B9A6F2
:101FD0000D0A00000D0A46526F70656E5F746872DC
:101FE00065616420CFDFB3CCB4B4BDA8CAA7B0DCB0
:101FF0000D0A00008147000868616E646C6500008E
:10200000681200200D0A636F64654F70656E5F741F
:10201000687265616420CFDFB3CCB4B4BDA8B3C926
:10202000B9A60D0A000000000D0A636F64654F70C9
:10203000656E5F74687265616420CFDFB3CCB4B441
:10204000BDA8CAA7B0DC0D0A0000000038B5002406
:1020500000940220FEF7FDF900280DD00748017812
:10206000012906D10470064801226946006803F080
:10207000E0F90220FEF7FBF938BD00005C130020F8
:102080006013002038B501210820FEF768FC2020ED
:10209000ADF8000010208DF8030003208DF8020039
:1020A0000F4C69462046FEF754FA0121ADF80010A6
:1020B00069462046FEF74DFA0221ADF80010694648
:1020C0002046FEF746FA20212046FEF7B1FA01210C
:1020D0002046FEF7ADFA02212046FEF7A9FA38BDE8
:1020E000000C014008B54FF4A060FEF7F7F825207A
:1020F0008DF8000001208DF801008DF802008DF8A8
:1021000003006846FEF7EFF808BD10B586B0012160
:102110000420FEF724FC01218803FEF720FC4FF485
:102120000070ADF8140018208DF8170003208DF80A
:102130001600654C05A92046FEF70BFA2115ADF8EF
:10214000141004218DF8171005A92046FEF701FA96
:102150004FF4E13001900020ADF80800ADF80A001E
:10216000ADF80C00ADF810000C20ADF80E00574C87
:1021700001A92046FFF702FCFFF7B4FF012240F25D
:1021800025512046FFF781FC01212046FFF771FC15
:1021900006B010BD10B504462046FFF7CBFC8021E9
:1021A0002046FFF734FD0028F9D010BD2DE9F0419D
:1021B00007460D461646002405E0295D3846FFF720
:1021C000E9FF641CE4B2B442F7D340213846FFF77C
:1021D0001EFD0028F9D0BDE8F08170B506460D4619
:1021E00000243046295DFFF7D5FF641C285D0028D8
:1021F000F7D140213046FFF70AFD0028F9D070BD25
:1022000070B50546080ACCB201462846FFF792FC95
:1022100080212846FFF7FBFC0028F9D021462846FC
:10222000FFF788FC80212846FFF7F1FC0028F9D051
:1022300070BD70B50446254DE1B22846FFF77AFC23
:1022400080212846FFF7E3FC0028F9D0204670BD26
:1022500010B51E4C20212046FFF7D9FC0028F9D0EC
:102260002046BDE81040FFF769BC70B5174C40F23E
:1022700025512046FFF7D6FC00280ED02046FFF758
:102280005DFCC1B2124A1088030406D444044FF026
:10229000000307D50A2901D0138070BD40F4004027
:1022A000108070BD0D290AD00A4DC0F30D042955C8
:1022B000401C80B21080C728F3D9138070BD40F451
:1022C0008040108070BD00000008014000380140CF
:1022D00028000020D4B30020704770B504460D4696
:1022E00029462046FEF790F9012801D0002070BD54
:1022F00029462046FEF788F90128F9D0012070BD53
:1023000008B501210820FEF72AFB4020ADF80000A7
:1023100028208DF8030003208DF802006946F84854
:10232000FEF717F908BDF7490A885206FCD5F549AA
:10233000091D0880704710B5EF20FFF7F4FFBDE8D6
:1023400010400120EFE710B5EF4C2068000EFFF7BA
:10235000EAFF2068C0F30740FFF7E5FF2088C0F3DD
:102360000720FFF7E0FF2078BDE81040DBE7DAE761
:1023700010B50446C4F30720FFF7D5FFE0B2BDE86F
:102380001040D0E7CFE710B50446200AFFF7CBFF97
:10239000E0B2BDE81040C6E77CB50446EF208DF8FA
:1023A000000001208DF80100D7480068010E8DF86B
:1023B0000210010C8DF80310010A8DF804108DF83D
:1023C000050007208DF8060000268DF80760CF4D28
:1023D0002E800CE0012004F02FFA2888000406D596
:1023E0002E806946CA480AF0F5F8002804D1641E18
:1023F0002404240CEED100207CBD10B5FFF79BFF18
:10240000FFF7A1FF0120FFF7B2FF0320FFF7B0FFA6
:102410000120FFF7B7FF0520FFF7B5FF4FF4FA6083
:10242000FFF7BAFF08B1407A10BDFF2010BD10B50C
:102430000446FFF780FFFFF786FF0120FFF797FFB5
:102440000420FFF795FF0220FFF79CFF2046FFF7CF
:102450006AFFE01DFFF797FF4FF4FA60FFF79CFF5C
:1024600008B1407A10BDFF2010BD10B5FFF763FF23
:10247000FFF769FF0120FFF77AFF0320FFF778FFDE
:102480000320FFF77FFF0720FFF77DFF4FF4FA607F
:10249000FFF782FF08B1407A10BDFF2010BD2DE983
:1024A000F04107460C4615461E46FFF744FFFFF76E
:1024B0004AFF0120FFF75BFF0820FFF759FF0420C8
:1024C000FFF760FF3846FFF72EFF200AFFF72BFFCC
:1024D000E0B2FFF728FF280AFFF725FFE8B2FFF771
:1024E00022FF07EB1420E1B2084400EB1520E9B20B
:1024F00008440D30FFF747FF4FF4FA60FFF74CFF39
:1025000058B1417AC27A837A02EB03223280427B4D
:10251000007B02EB0020708000E0FF210846BDE850
:10252000F08110B5FFF707FFFFF70DFF0120FFF760
:102530001EFF0320FFF71CFF0520FFF723FF0920E4
:10254000FFF721FF4FF4FA60FFF726FF08B1407A4A
:1025500010BDFF2010BD70B505460C46FFF7EBFE21
:10256000FFF7F1FE0120FFF702FF0620FFF700FF53
:102570000620FFF707FF2846FFF7D5FE200AFFF7E2
:10258000D2FEE0B2FFF7CFFE05EB1420E1B2084423
:102590000D30FFF7F8FE4FF4FA60FFF7FDFE08B1CB
:1025A000407A70BDFF2070BD70B504460D46FFF740
:1025B000C2FEFFF7C8FE0120FFF7D9FE0720FFF794
:1025C000D7FE0C20FFF7DEFE200AFFF7ACFEE0B2DC
:1025D000FFF7A9FE280AFFF7A6FEE8B2FFF7A3FE61
:1025E000E0B200EB142000EB1520E9B208441430EF
:1025F000FFF7C9FE4FF4FA60FFF7CEFE08B1407A4C
:1026000070BDFF2070BD10B5FFF795FEFFF79BFE74
:102610000120FFF7ACFE0320FFF7AAFE0D20FFF715
:10262000B1FE1120FFF7AFFE4FF4FA60FFF7B4FEE2
:1026300008B1407A10BDFF2010BD21283CD2DFE850
:1026400000F011131517191B1D1F212325273B3BD4
:102650003B3B27293B3B3B2B3B3B2D2F3133353B32
:102660003B3739002BA070472BA070472EA0704736
:1026700032A0704736A070473DA0704744A0704715
:102680004AA0704757A0704759A070475CA0704798
:102690005FA0704762A0704765A070476DA070474B
:1026A00070A0704772A0704775A0704779A07047FE
:1026B0007DA070477FA0704781A0704770B5054628
:1026C0000C46FFF738FEFFF73EFE0120FFF74FFEF6
:1026D0000520FFF74DFE0E20FFF754FE2846FFF7BA
:1026E00022FE2046FFF71FFE28191430FFF74BFE8D
:1026F0004FF4FA60FFF750FE08B1447AEBE0E9E0EE
:10270000000C0140004400402C000020300000205C
:102710009CB400204F4B0000CAFDBEDDB0FCBDD311
:10272000CAD5B4EDCEF30000B4ABB8D0C6F7C9CF6C
:10273000C3BBD3D0CAD6D6B800000000C2BCC8EB19
:10274000D6B8CEC6CDBCCFF1CAA7B0DC0000000021
:10275000D6B8CEC6CDBCCFF1CCABB8C9A1A2CCAB5C
:10276000B5ADB6F8C9FAB2BBB3C9CCD8D5F700003D
:10277000D6B8CEC6CDBCCFF1CCABCAAAA1A2CCAB49
:10278000BAFDB6F8C9FAB2BBB3C9CCD8D5F70000C8
:10279000D6B8CEC6CDBCCFF1CCABC2D2B6F8C9FA52
:1027A000B2BBB3C9CCD8D5F700000000D6B8CEC6AE
:1027B000CDBCCFF1D5FDB3A3A3ACB5ABCCD8D5F789
:1027C000B5E3CCABC9D9A3A8BBF2C3E6BBFDCCAB88
:1027D000D0A1A3A9B6F8C9FAB2BBB3C9CCD8D5F772
:1027E00000000000D6B8CEC6B2BBC6A5C5E4000046
:1027F000C3BBCBD1CBF7B5BDD6B8CEC60000000069
:10280000CCD8D5F7BACFB2A2CAA7B0DC000000007E
:10281000C9BEB3FDC4A3B0E5CAA7B0DC0000000088
:10282000C7E5BFD5D6B8CEC6BFE2CAA7B0DC0000A8
:10283000BBBAB3E5C7F8C4DAC3BBD3D0D3D0D0A7F3
:10284000D4ADCABCCDBCB6F8C9FAB2BBB3C9CDBC15
:10285000CFF10000B6C1D0B420464C41534820B35C
:10286000F6B4ED00CEB4B6A8D2E5B4EDCEF30000D8
:10287000CEDED0A7BCC4B4E6C6F7BAC500000000DF
:10288000BCC4B4E6C6F7C9E8B6A8C4DAC8DDB4ED7E
:10289000CEF30000BCC7CAC2B1BED2B3C2EBD6B839
:1028A000B6A8B4EDCEF30000D6B8CEC6BFE2C2FAE9
:1028B00000000000B5D8D6B7B4EDCEF3000000009C
:1028C000C4A3BFE9B7B5BBD8C8B7C8CFC2EBD3D094
:1028D000CEF30000FF2444B12046FFF7AEFE0146D0
:1028E000C8A003F0DCF9204670BDC8A003F0D7F9FA
:1028F000F9E770B50446FFF71EFDFFF724FD012040
:10290000FFF735FD0320FFF733FD0F20FFF73AFDFA
:102910001320FFF738FD4FF47A70FFF73DFDB8B193
:10292000457AC17B827B01EB02212180417CA17031
:10293000417D827C037D01EB0261C27C120402EBCB
:10294000032211446160C17D2172407E607200E00B
:10295000FF2545B12846FFF770FE0146A9A003F008
:102960009EF9284670BD2188ADA003F098F9A178A2
:10297000B1A003F094F9B4A0616803F090F9617A12
:102980004FF416504143B3A003F089F9E9E770B55D
:102990000446FFF7D0FCFFF7D6FC0120FFF7E7FC69
:1029A0000720FFF7E5FC1520FFF7ECFC200EFFF7F2
:1029B000BAFCC4F307400646FFF7B5FCC4F3072092
:1029C0000546FFF7B0FCE0B2FFF7ADFC06EB146084
:1029D0002844E1B208441D30FFF7D5FCA04E346016
:1029E0004FF4FA60FFF7D8FC08B1457A00E0FF2504
:1029F000346045B12846FFF720FE014681A003F070
:102A00004EF9284670BD97A003F049F9F9E72DE982
:102A1000F04107460E46FFF78EFCFFF794FC0120BD
:102A2000FFF7A5FC2420FFF7A3FC1820FFF7AAFC62
:102A30003846FFF778FC0024305DFFF774FC305D0A
:102A4000284485B2641CE4B2202CF5D378193D30BB
:102A500080B2FFF798FC4FF4FA60FFF79DFC08B1D5
:102A6000407A5CE5FF205AE570B505460C46FFF755
:102A700062FCFFF768FC0120FFF779FC0420FFF7F8
:102A800077FC1920FFF77EFC2846FFF74CFC05F188
:102A90001E00FFF778FC4FF4FA60FFF77DFC48B1A9
:102AA000437A00228118897AA154521CD2B2202A7A
:102AB000F8D300E0FF23184670BD2DE9F04107462A
:102AC0000C4615461E46FFF736FCFFF73CFC01207E
:102AD000FFF74DFC0820FFF74BFC1B20FFF752FCD3
:102AE0003846FFF720FC200AFFF71DFCE0B2FFF795
:102AF0001AFC280AFFF717FCE8B2FFF714FC07EBF3
:102B00001420E1B2084400EB1520E9B20844243057
:102B1000FFF739FC4FF4FA60FFF73EFC58B1417AF9
:102B2000C27A837A02EB03223280427B007B02EB83
:102B30000020708000E0FF210846F0E470B50546F3
:102B4000FFF7F9FBFFF7FFFB0120FFF710FC032065
:102B5000FFF70EFC1D20FFF715FC2120FFF713FCEB
:102B60004FF4FA60FFF718FC30B1447AC17A827AE8
:102B700001EB0221298000E0FF2444B12046FFF749
:102B80005CFD01463CA003F08AF8204670BDC17A86
:102B9000807A01EB00213AA003F081F8F5E770B5E7
:102BA0000446FFF7C8FBFFF7CEFB0120FFF7BBFB96
:102BB0000020FFF7B8FB0020FFF7B5FBC82003F0AB
:102BC0003BFE344A108800040BD5334900230878B3
:102BD000EF2805D14878012802D18879072802D04A
:102BE0001380012070BD48798D7800EB0560CD78A9
:102BF00009792D0405EB0121084420601380002091
:102C000070BD00000D0A2573000000000D0AC9E820
:102C1000D6C3B2CECAFDB3C9B9A6A3A100000000B5
:102C20000D0AC4A3BFE9D7EEB4F3D6B8CEC6C8DD4B
:102C3000C1BF3D25640000000D0AB6D4B1C8B5C8B7
:102C4000BCB63D25640000000D0AB5D8D6B73D25B9
:102C5000780000000D0AB2A8CCD8C2CA3D25640095
:102C60002C0000200D0AC9E8D6C3B5D8D6B7B3C921
:102C7000B9A6A3A10000000025730A0A0000000005
:102C80000D0AD3D0D0A7D6B8CEC6B8F6CAFD3D251A
:102C9000640A0A00300000209CB4002038B50121ED
:102CA0000420FDF75CFE4FF48074ADF80040102066
:102CB0008DF8030003208DF80200054D6946284673
:102CC000FDF747FC21462846FDF7B4FC38BD00005F
:102CD0000008014010B5224C01212046FEF7F6FD08
:102CE00000280ED01F48018841F4004101800121D5
:102CF0002046FEF7F7FD2046BDE810400021FEF714
:102D000098BB10BD7FB504460D4601212020FDF77C
:102D100031FEADF80440ADF800500024ADF8064097
:102D2000ADF802400E4D69462846FEF7B1F8012283
:102D300011462846FEF797FB01212846FEF779FB4E
:102D400037208DF80C008DF80D4002208DF80E0014
:102D500001208DF80F0003A8FDF7C5FA7FBD000024
:102D6000001400403000002070B5534C40F2255153
:102D70002046FEF757FF00281BD02046FEF7DEFE58
:102D8000C5B24E4C2088000413D42088B0F5C87F0B
:102D900010D24B4E00213046FEF76CFD218819B948
:102DA00001213046FEF745FB2088411C2180454922
:102DB0000D5470BD208840F40040208070BDF0B5F7
:102DC00087B0044601210420FDF7C9FD0121480414
:102DD000FDF7D0FD384F3846FEF788FD0426ADF8E4
:102DE000146003258DF8165018208DF8170005A9DA
:102DF0003548FDF7AEFB0820ADF814008DF81760DC
:102E000005A93248FDF7A5FB01940024ADF8084060
:102E1000ADF80A40ADF80C40ADF810400C20ADF80C
:102E20000E0001A93846FEF7A9FD01213846FEF73C
:102E300020FE012240F225513846FEF726FE2620CC
:102E40008DF8180002208DF819008DF81A50012015
:102E50008DF81B0006A8FDF746FA41F61F416320D6
:102E6000FFF750FF1548048000211548FEF7E1FAEE
:102E700007B0F0BD0FB4F8B507AA1548069909F0D8
:102E8000A5FF00200090124809F0C0FB86B2002484
:102E9000094F0F4D0BE040213846FEF7B8FE0028E1
:102EA000F9D0295D3846FEF745FE641CA4B2B44251
:102EB000F1D3F8BC5DF814FB004400403000002062
:102EC000001400409CB4002000080140000C0140A8
:102ED0002CB6002038B501211020FDF740FD4FF43D
:102EE0007060ADF8000010208DF8030003248DF809
:102EF00002406D4D69462846FDF72BFBF021ADF8E9
:102F0000001028218DF803108DF8024069462846EC
:102F1000FDF71FFB38BD70B56424634DE86880B2CF
:102F200040F470612846FDF78DFBA8684FF0FF362E
:102F300010F0F00F1BD0032003F07EFCA86810F007
:102F4000F00F16D0E8684FF2FF06304040F4807171
:102F50002846FDF777FBA86800F0F00010280AD09B
:102F600020280AD040280AD080280BD109E030461A
:102F700070BD304670BD032404E0072402E00B243A
:102F800000E00F24A86810F0F00FFBD1E868304093
:102F900040F400712846FDF755FBA86800F0F000EA
:102FA000102806D0202806D0402806D0802807D137
:102FB00005E0022404E0062402E00A2400E00E24D6
:102FC000A86810F0F00FFBD1E868304040F4806151
:102FD0002846FDF737FBA86800F0F000102806D05F
:102FE000202806D0402806D0802807D105E00124FB
:102FF00004E0052402E0092400E00D24A86810F094
:10300000F00FFBD1E868304040F400612846FDF73E
:1030100019FBA86800F0F000102806D0202806D080
:10302000402806D0802807D105E0002404E00424CD
:1030300002E0082400E00C24A86810F0F00FFBD197
:10304000204670BD10B5FFF766FF102829D2DFE8D3
:1030500000F0080A0C0E10121416181A1C1E20225A
:103060002426012010BD022010BD032010BD0B201E
:1030700010BD042010BD052010BD062010BD0C2081
:1030800010BD072010BD082010BD092010BD0D2067
:1030900010BD142010BD002010BD152010BD0E2045
:1030A00010BD642010BD00000010014070B5002468
:1030B00042F20F754FF6FF76FFF7C4FFC2B2642AE3
:1030C000FAD00D2A0ED00E2A0ED0501E082806D88F
:1030D000AC4204D204EB840002EB400084B2152A17
:1030E00005D007E0304670BD4FF47F4070BD0A2028
:1030F000B4FBF0F42AB9AC4203D204EB840006EA34
:103100004004142A04D02146F7A002F0C8FDD3E7FA
:10311000204670BD70B5054600240026FFF792FFDB
:1031200042B2642AFAD00D2A0DD00E2A0ED0092AF6
:1031300006D8214602F13000641CE4B268542E55D2
:10314000152A06D008E04FF6FF7070BD4FF47F409F
:1031500070BD641EE4B22E55142A04D02946E5A0A1
:1031600002F09DFDDAE74FF4704070BD10B50446E3
:10317000204609F04BFA82B20021002302E063549A
:10318000491CC9B29142FAD310BD2DE9F047002481
:103190000025DCA002F083FDDF4EDFF880930027DE
:1031A0004FF001086D1CADB2052C75D2DFE804F0BC
:1031B000031E394C5F00DAA002F071FDFFF71DF924
:1031C00018B1DAA002F06BFD66E0C6F8A08101201C
:1031D000FFF72DF9C6F8A07118B1D8A002F05FFD75
:1031E0005AE0D9A002F05BFD012455E0D9A002F01D
:1031F00056FDFFF702F918B1CCA002F050FD4BE0EC
:10320000C6F8A0810220FFF712F9C6F8A07118B124
:10321000CAA002F044FD3FE0CBA002F040FD022432
:103220003AE0D1A002F03BFDFFF71FF938B1D2A080
:1032300002F035FD00241E2003F0FEFA2CE0D5A09C
:1032400002F02DFD0324F6E7D8A002F028FDFFF7D9
:1032500068F938B10024D9A002F021FD1E2003F046
:10326000EBFA19E0DAA002F01AFD0424F6E7DDA07B
:1032700002F015FDE2A002F012FDFFF717FF014674
:10328000B9F800008842F8D90220FFF764F978B154
:103290000024DFA002F003FD4FF4FA7003F0CCFA33
:1032A0000A2D7FF47FAFBDE8F047DDA002F0F7BC48
:1032B000E3A002F0F4FCE648FFF740FCE449B9F86B
:1032C00000000988411AE3A002F0E9FCBDE8F047DC
:1032D0001E2003F0B1BA2DE9F84FFFF78EF8002851
:1032E00011D18D4C0125C4F8A0510120FFF79FF8A2
:1032F000002650B1DFA002F0D2FCC4F8A0614FF468
:10330000167003F099FABDE8F88FC4F8A0618348FD
:103310006B46002102880120FFF7CFFBDFF86483B2
:103320004FF47A79A8F1040788B1C4F8A051202598
:10333000C8F80050642003F07FFAC4F8A061484642
:1033400003F07AFA3D60D0A002F0A9FCD5E7D4A042
:1033500002F0A5FC322002F0D7FD8246C8F80050EA
:10336000BDF80230BDF80020D1A1504609F01AFD89
:10337000484603F061FA3D605146D7A002F08FFC49
:10338000504602F03FFEB8E72DE9F84F0024DFF881
:1033900054B30127DFF8B8925F4D4FF002080026C2
:1033A000641CDBF81801002850D0FFF726F800282D
:1033B0004CD1C5F8A0710120FFF739F818B1CAA0A7
:1033C00002F06DFC9FE7C5F8A06154486B460021F0
:1033D00002880120FFF771FB38B1C9F80460CAA068
:1033E00002F05DFCFFF7D1FE8DE7ADA002F057FCC7
:1033F000322002F089FD8246BDF80230BDF800207F
:10340000C7A1504609F0CEFCC5F8A0719D48C0F890
:103410000080322003F010FAC5F8A061C82003F044
:103420000BFA9848001FC0F800805146AAA002F08D
:1034300036FC504602F0E6FDC9F80470062CC1D0F7
:10344000C5F8A0614FF4FA7003F0F6F9C0A002F0DD
:1034500026FC0A2C04D04FF4FA6003F0EDF99FE744
:10346000C9F80480BFA002F01AFC4CE710B5C6A052
:1034700002F015FCC7A002F012FC61A002F00FFCE4
:103480000C2003F0D9F9FFF711FE0446A4F57F40A4
:10349000FF3802D1C6A002F002FCB4F57F4F1BD06A
:1034A00001212046FFF780F8C8B1C5A002F0F7FB64
:1034B0004FF4967003F0C0F96548FFF73FFB1748DB
:1034C000634900880988411A62A002F0E8FBBDE860
:1034D0001040322003F0B0B9FFF795F8E4E7BDA043
:1034E00002F0DDFBE4E700006E756D3D25640A0A1D
:1034F000000000007374725F6E756D3D25730A0ADB
:1035000000000000BFAACABCC2BCD6B8CEC6A3A1E8
:10351000A3A1A3A10A0A000000002142BCB7002019
:10352000C7EBB0B4D6B8CEC60A0A0000C9FAB3C910
:10353000CCD8D5F7B4EDCEF30A0A0000D6B8CEC683
:10354000B4EDCEF30A0A0000D6B8CEC6D5FDB3A3BB
:103550000A0A0000C7EBB0B4D4D9B0B4D2BBB4CE21
:10356000D6B8CEC60A0A0000B6D4B1C8C1BDB4CE22
:10357000D6B8CEC60A0A0000B6D4B1C8CAA7B0DC15
:10358000A3ACC7EBD6D8D0C2C2BCC8EBD6B8CEC6A7
:103590000A0A0000B6D4B1C8B3C9B9A62CC1BDB4DB
:1035A000CED6B8CEC6D2BBD1F90A0A00C9FAB3C981
:1035B000D6B8CEC6C4A3B0E50A0A0000C9FAB3C99A
:1035C000D6B8CEC6C4A3B0E5B4EDCEF30A0A000067
:1035D000C9FAB3C9D6B8CEC6C4A3B0E5B3C9B9A6B3
:1035E0000A0A0000C7EBCAE4C8EBB4A2B4E6494437
:1035F0002CB0B4456E746572B1A3B4E60A0A00003B
:10360000303D3C204944203C3D3239390A0A000013
:10361000C2BCC8EBD6B8CEC6CAA7B0DC0A0A000046
:10362000B3ACB9FD35B4CEC3BBD3D0B0B4CAD6D6D3
:10363000B8A3ACCDCBB3F6A3A1A3A1A3A10A0A0062
:10364000C2BCC8EBD6B8CEC6B3C9B9A60A0A000038
:10365000380000204153363038506172612E50538B
:103660005F6D61782D56616C69644E3D25640A0A70
:1036700000000000C9FAB3C9CCD8D5F7CAA7B0DC9E
:103680000A0A0000140C0140CBD1CBF7CAA7B0DC6A
:10369000A3A1BDE2CBF8CAA7B0DCA3A10A0A00002F
:1036A000CBA2D6B8CEC6B3C9B9A60A0A000000009C
:1036B000C8B7D3D0B4CBC8CB2C49443A256420201A
:1036C000C6A5C5E4B5C3B7D63A256420BFAACBF8D2
:1036D000B3C9B9A60A0A00007374723D25730A0AB9
:1036E0000000000000802142C9FAB3C9D6B8CEC696
:1036F000CCD8D5F7CAA7B0DCA3ACCDCBB3F6A3A189
:10370000A3A1A3A10A0A0000B4CBD6B8CEC6CEB4FA
:10371000C2BCC8EBA3A1A3A1A3A10A0A0000000098
:10372000D2D1D3D0D6B8CEC62C49443A2564202075
:10373000C6A5C5E4B5C3B7D63A25640A0AC7EBBB2C
:10374000BBB8F6D6B8CEC62121210A0A0000000077
:10375000C7EBB0B4D6B8CEC6A3A1A3A1A3A10A0A51
:1037600000000000B3ACB9FD3130B4CEC3BBD3D040
:10377000B0B4CAD6D6B8A3ACCDCBB3F6A3A1A3A19F
:10378000A3A10A0A00000000C9BEB3FDD6B8CEC688
:103790000A0A0000C7EBCAE4C8EBD6B8CEC6494453
:1037A000B0B4456E746572B7A2CBCD0A0A000000B2
:1037B000B7B5BBD8D6F7BDE7C3E60A0A00000000DC
:1037C000C9BEB3FDD6B8CEC6B2BBB3C9B9A6212116
:1037D000210A0A00C9BEB3FDD6B8CEC6B3C9B9A680
:1037E0002121210A0A00000010B528A002F057FA92
:1037F0000BE0642003F020F82AA002F050FAC82061
:1038000003F01AF82DA002F04AFA3148FFF7C7F981
:103810000028EED12FA002F042FA1E2002F074FB25
:1038200004462B484FF461422EA10368204609F05C
:10383000B9FA2146AFF23C3002F031FA2E48FFF7D8
:103840007DF910B12DA002F02AFA2E48FFF751F8A9
:1038500038B12DA002F023FA2046BDE8104002F056
:10386000D1BB32220021204601F05CFF25482249CD
:10387000837800880988421A25A1204609F092FA27
:103880002146AFF2883002F00AFAE5E7D3EB415364
:10389000363038C4A3BFE9CED5CAD62E2E2E2E0A76
:1038A0000A000000CEB4BCECB2E2B5BDC4A3BFE9CF
:1038B000A3A1A3A1A3A10A0A00000000B3A2CAD435
:1038C000C1ACBDD3C4A3BFE92E2E2E0A0A0000004E
:1038D0002C000020CDA8D1B6B3C9B9A62121210A58
:1038E0000A000000B2A8CCD8C2CA3A256420202021
:1038F000B5D8D6B73A257800380000204F4B0A0AD1
:1039000000000000BCB700204552524F520A0A0086
:10391000BFE2C8DDC1BF3A25642020202020B6D4F4
:10392000B1C8B5C8BCB63A20256400002DE9F04105
:10393000F94C00202060F94EF94FDFF8E883FA4D8A
:103940002068401C2060FFF77DFB80B2A8F80000D3
:103950000B280ED1F5A002F0A2F9F948FFF706FCFA
:10396000F748FFF7D7FBEC49F5480C3108F055FE56
:1039700078B12068322877DDF2A002F090F9F048A3
:10398000FFF7F4FBEE48FFF7C5FBA06801283CD029
:1039900058E0F1A002F083F9DF480C30FFF7E6FBB6
:1039A000DD480C30FFF7B6FB1322F1A1DB4804F031
:1039B0001CFD287000285BD10021D84804F0C2FF0C
:1039C000D549EF4B64220C31D44804F07AFE2870BC
:1039D000EB480168EBA002F062F9287880B9002179
:1039E000CE4804F0AFFFCE4BE949CC48F26804F072
:1039F000AAFD287020B9E649E6A03A6802F04FF91E
:103A0000BDE8F041C54804F08EBF1322D8A1C348D9
:103A100004F0EBFC287090B90021C04804F092FF3C
:103A2000BD49BF4B0C31BD48F26804F08CFD2870D5
:103A300028B9B949DDA00C313A6802F030F9B7482D
:103A400004F071FFB449BE480C3108F0E6FD20B126
:103A5000BDE8F041DBA002F022B9B948FFF786FBD0
:103A6000BDE8F041FFF790BC142002F0E5FE67E7E7
:103A7000BDE8F0812DE9F047A74C4FF00008C4F8ED
:103A80000080DFF8A0A2A54EDFF89492D44DA64F97
:103A90002068401C2060FFF7D5FA80B2AAF8000029
:103AA0000D282BD1CFA002F0FAF8A5486430FFF71B
:103AB0005DFBA3486430FFF72DFB1322CEA197488E
:103AC00004F093FC38700021944804F03BFF9249C5
:103AD000934B70319148F26804F035FD38708E498F
:103AE000C9A0703102F0DBF88C4804F01CFF8A4951
:103AF00093487031643008F090FDB8B120683228E6
:103B000010DDC5A002F0CBF88D486430FFF72EFB26
:103B10008B486430FFF7FEFA6068012848D02878A7
:103B2000312845D0142002F087FEB1E7BFA002F093
:103B3000B6F879487030FFF719FB77487030FFF717
:103B4000E9FA7549BEA0703102F0A9F81322AAA1C2
:103B5000724804F04AFC3870002879D100216F487F
:103B600004F0F0FE6C49864B642270316B4804F01F
:103B7000A8FD38708248016882A002F090F8387879
:103B800088B90021654804F0DDFE654B8049634833
:103B9000F26804F0D8FC387028B97D49ACA0D9F897
:103BA000002002F07CF8BDE8F0475C4804F0BBBEA2
:103BB000132291A1594804F018FC3870F8B900217B
:103BC000564804F0BFFE5E49554BC8315348F26871
:103BD00004F0B9FC38705A494F48C831703008F0C9
:103BE0002AFD5749A0A0C83102F059F8387830B9F9
:103BF0004949A1A07031D9F8002002F050F8474897
:103C000004F091FE1322A2A1444804F0EEFB3870A8
:103C10000146A5A002F043F83878A84CE0B900218D
:103C20003E4804F08FFE3E4BA5493C48F26804F044
:103C30008AFC3870A2498A792A7081F8068021604E
:103C400050B9A0A0D9F8002002F029F8297800E0A6
:103C50005FE0A2A002F023F8304804F064FE384888
:103C60002168643008F0D9FCE8B9287831281AD1E5
:103C7000132287A1294804F0B8FB387080B90021CD
:103C8000264804F05FFE3E4B07229BA1234804F028
:103C900018FD38709AA002F002F89FA001F0FFFF13
:103CA0001E4804F040FE1C4925487031643008F07D
:103CB000B4FCA04E01274FF47A7AA6F10409D8B1DA
:103CC0001F482168643008F0A8FC10B92878312812
:103CD00012D0994C276020253560642002F0ACFD9D
:103CE000C4F80080504602F0A7FDC9F80050BDE8B6
:103CF000F04792A001F0D3BF11486430FFF736FAC5
:103D0000376094A001F0CBFF504602F095FDC9F852
:103D10000070BDE8F08700004000002040C900208E
:103D20001C0100203400002019010020C7EBCAE468
:103D3000C8EBD4ADC8CFD6A4C3DCC2EB3A0A0A00A4
:103D4000C8B70020C7EBCAE4C8EBC8CFD6A4C3DC11
:103D5000C2EB3A0A0A000000C7EBC9E8D6C3D0C2DA
:103D6000B5C4C8CFD6A4C3DCC2EB0A0A0000000069
:103D7000313AC8CFD6A4C3DCC2EB2E7478740000ED
:103D8000601200200D0A62773D20256400000000CB
:103D9000600200200D0AC8CFD6A4C3DCC2EBA3BAD0
:103DA00025732062723D202564000000C8CFD6A490
:103DB000C3DCC2EBA3BA25732062723D2025640ADE
:103DC0000A000000C8CFD6A4C3DCC2EBCAE4C8EB2B
:103DD000B4EDCEF3A3A1A3A1A3A10A0A00000000A1
:103DE00018010020C7EBCAE4C8EBD4ADCFB5CDB302
:103DF000C3DCC2EB3A0A0A00313ACFB5CDB3C3DC1B
:103E0000C2EB2E74787400000D0ACFB5CDB3C3DCBD
:103E1000C2EB3D20257300000AC7EBCAE4C8EBCF14
:103E2000B5CDB3C3DCC2EB3A0A0A00000AC7EBC93E
:103E3000E8D6C3CFB5CDB3C3DCC2EB0A0A0000009D
:103E4000CFB5CDB3C3DCC2EB3A25730A0A0000003C
:103E50000D0ACFB5CDB3C3DCC2EBA3BA2573206284
:103E6000723D20256400000070617373776F726487
:103E70003A25730A0A0000000D0ACFB5CDB3C3DCA2
:103E8000C2EBA3BA25732062723D2025640A0A00A2
:103E9000313AD2BBB4CED0D4C1D9CAB1C3DCC2EBA3
:103EA0002E74787400000000665F6F70656E20727B
:103EB0006573203D25640A0A000000006813002095
:103EC0004C020020C1D9CAB1C3DCC2EBA3BA25732E
:103ED0002062723D2025640A0A000000C1D9CAB1DF
:103EE000C3DCC2EBCAA3D3E0CAB9D3C3B4CECAFD04
:103EF000A3BA2563200A0A00303030303030300059
:103F0000C1D9CAB1C3DCC2EBCAA7D0A7A3A1A3A1E0
:103F1000A3A10A0A00000000C1D9CAB1C3DCC2EBE8
:103F2000CAA3D3E0CAB9D3C3B4CECAFDA3BA302062
:103F30000A0A0000140C0140A0012142CFB5CDB304
:103F4000C3DCC2EBCAE4C8EBB4EDCEF3A3A1A3A1DA
:103F5000A3A10000BFAACBF8B3C9B9A60A0A000002
:103F600070B586B001210803FCF7F9FC0121D420CB
:103F7000FCF7F5FC0124ADF8004003208DF80200A9
:103F800010208DF80300FA4D69462846FCF7E1FA47
:103F90002021ADF8001018218DF80310F54E694668
:103FA0003046FCF7D6FA4021ADF80010694630469D
:103FB000FCF7CFFA8021ADF8001069463046FCF7D7
:103FC000C8FA01212846FCF733FB0020ADF80400B5
:103FD0004FF48271ADF80610ADF808000221ADF87B
:103FE0000A10ADF80C400902ADF80E100821ADF82A
:103FF0001010ADF812000720ADF81400DE4C01A936
:104000002046FCF72FFD01212046FCF7B0FD06B04D
:1040100070BD10B50146D9A008F0B4FE002010BD57
:104020002DE9F0410746E14C4FF480552560D24E12
:1040300009E02068411E216005D20020FFF7E9FF5A
:10404000C0B2BDE8F08102213046FCF70CFE00282A
:10405000EFD039463046FCF7BAFD256008E021680C
:104060004A1E226004D20120FFF7D3FFC0B2E8E766
:1040700001213046FCF7F7FD0028F0D03046FCF770
:10408000A8FDC0B2DDE710B5B94C01212046FCF710
:10409000D1FA0520FFF7C4FFFF20FFF7C1FFC007DB
:1040A000FAD12046BDE810400121FCF7C1BA10B595
:1040B000AF4C01212046FCF7BDFA0620FFF7B0FF08
:1040C0002046BDE810400121FCF7B2BA70B50446A5
:1040D000FFF7EDFFFFF7D7FFA54D01212846FCF7BD
:1040E000A9FA2020FFF79CFFC4F30740FFF798FFD1
:1040F000C4F30720FFF794FFE0B2FFF791FF01211F
:104100002846FCF795FABDE87040BCE710B5FFF70C
:10411000CEFF974C01212046FCF78CFAC720FFF711
:104120007FFF01212046FCF783FABDE81040AAE793
:104130002DE9F04105460F461446FFF7B8FF8C4EB7
:1041400001213046FCF776FA0220FFF769FFC7F33A
:104150000740FFF765FFC7F30720FFF761FFF8B2DD
:10416000FFF75EFFB015844208D9044690A008F01E
:1041700009FE03E02878FFF753FF6D1C641EA4B20C
:10418000F8D201213046FCF753FABDE8F0417AE756
:104190002DE9F04706460D46E8B24142CFB2140A77
:1041A00002F0FF094FF48078002812D0E8B24042B4
:1041B000C0B205EB000A24B3D01B80B2040A00F0A1
:1041C000FF093A4629463046FFF7B2FF55463E44BE
:1041D00035E06CB929463046BDE8F047A8E74246CD
:1041E00029463046FFF7A4FF05F5807506F5807671
:1041F000641EE4B2F3D24A4629463046BDE8F04791
:1042000096E7B9450DD9A9EB0700C4B23A4629464D
:104210003046FFF78DFF5146F0192246BDE8F047C2
:1042200086E729463046BDE8F04781E74246294601
:104230003046FFF77DFF05F5807506F58076641E34
:10424000E4B2F3D2B9F1000F05D04A462946304610
:10425000BDE8F0476CE7BDE8F0872DE9F041044682
:104260000F461546424E01213046FCF7E3F9032084
:10427000FFF7D6FEC7F30740FFF7D2FEC7F30720CC
:10428000FFF7CEFEF8B2FFF7CBFE04E0FF20FFF70A
:10429000C7FE04F8010B6D1EADB2F7D23046BDE883
:1042A000F0410121FCF7C4B92DE9F041304F012163
:1042B0003846FCF7BFF99F20FFF7B2FEFF20FFF75B
:1042C000AFFE0446FF20FFF7ABFE0546FF20FFF7D9
:1042D000A7FE064601213846FCF7AAF9200440EA69
:1042E00005203043ADE670B5214C01212046FCF796
:1042F000A1F9AB20FFF794FEFF20FFF791FEFF200E
:10430000FFF78EFEFF20FFF78BFEFF20FFF788FEF2
:10431000054601212046FCF78BF9284670BD10B5F3
:10432000044601211248FCF785F90320FFF778FEC7
:10433000C4F30740FFF774FEC4F30720FFF770FED5
:10434000E0B2BDE810406BE6FF2069E62DE9F041E0
:104350000746164C4FF480552560074E42E0206812
:10436000411E21603ED2BDE8F041022051E600002E
:104370000010014000080140003001403C3C2D4647
:104380004C4153482D4552524F522D3E3E205350E2
:104390004920B5C8B4FDB3ACCAB1216572726F7261
:1043A000436F6465203D2025640A0000140100204D
:1043B0003C3C2D464C4153482D4552524F522D3EC8
:1043C0003E205350495F464C4153485F50616765FA
:1043D000577269746520746F6F206C617267652114
:1043E0000A00000002213046FCF73DFC0028B6D050
:1043F00039463046FCF7EBFB256007E021684A1E92
:10440000226003D2BDE8F041032002E601213046DC
:10441000FCF729FC0028F1D03046BDE8F041FCF75C
:10442000D8BB10B50E4C01212046FCF703F9B9208A
:10443000FFF7F6FD2046BDE810400121FCF7F8B873
:1044400010B5074C01212046FCF7F4F8AB20FFF72C
:10445000E7FD2046BDE810400121FCF7E9B8000067
:104460000010014070B5012266A1674803F098FF73
:10447000664C6070014666A001F011FC60780D2862
:1044800019D1002211465FA004F03BFE6070014686
:1044900064A001F004FC01225AA1002003F080FF77
:1044A0006070012257A1584803F07AFF60700146FE
:1044B00061A001F0F4FB132265A1694803F095FFA8
:1044C00060700126664D00282DD10021284604F099
:1044D00039FA4E4B28461B1D03F19A01EA6804F095
:1044E00032F8607028B949495EA09E31626801F0D7
:1044F000D6FB46489E3008F089F8022805D3434889
:104500009E3008F083F80C2803D95CA001F0C7FBAB
:1045100006E0654806603D4964489E3108F08BF826
:104520004F4804F000FA132261A14D4803F05DFFEB
:10453000607008BB00214A4804F004FA334B484835
:104540001B1D191DEA6803F0FEFF607028B92F4992
:104550005BA00831626801F0A2FB2C48083008F02B
:1045600055F8022805D32948083008F04FF80C28E0
:1045700003D959A001F093FB06E062480660234985
:104580006148083108F057F8354804F0CCF9132297
:104590005EA1334803F029FF607000282DD100216F
:1045A0002F4804F0CFF9194B2D481B1D03F59871C6
:1045B000EA6803F0C8FF60705A4808F027F85A4DBF
:1045C000022805D95748817921700021817128601E
:1045D000607840B9626855A0296801F060FB2178D5
:1045E00058A001F05CFB286808F010F8052801D3FA
:1045F000207810B95AA001F052FBBDE8704018486D
:1046000004F091B9313A000010B9002018010020DF
:10461000665F6D6F756E7420726573203D25640A48
:104620000A000000665F6D6B667320726573203D43
:1046300025640A0A000000007365636F6E642066DB
:104640005F6D6F756E7420726573203D2564000088
:10465000313ACFB5CDB3C3DCC2EB2E747874000011
:1046600040C90020CFB5CDB3C3DCC2EBA3BA2573DC
:104670002062723D2025640A0A000000BDA8D2E92C
:10468000D0DEB8C4CFB5CDB3C3DCC2EBA3ACB7F1B9
:10469000D4F2CAB9D3C3D4ADCABCC3DCC2EBA3A1A4
:1046A000A3A1A3A10A0A000044000020B00000203A
:1046B000313AC8CFD6A4C3DCC2EB2E7478740000A4
:1046C000C8CFD6A4C3DCC2EBA3BA25732062723D67
:1046D0002025640A0A000000BDA8D2E9D0DEB8C4D3
:1046E000C8CFD6A4C3DCC2EBA3ACB7F1D4F2CAB92D
:1046F000D3C3D4ADCABCC3DCC2EBA3A1A3A1A3A105
:104700000A0A0000480000204C000020313AD2BBC9
:10471000B4CED0D4C1D9CAB1C3DCC2EB2E74787484
:10472000000000004C02002068130020C1D9CAB16B
:10473000C3DCC2EBA3BA25732062723D2025640A54
:104740000A000000C1D9CAB1C3DCC2EBCAA3D3E0DE
:10475000CAB9D3C3B4CECAFDA3BA2563200A0A00DE
:10476000D2BBB4CED0D4C1D9CAB1C3DCC2EBB2BBC8
:10477000B4E6D4DAA3A1A3A1A3A10A0A0000000011
:104780002F4C03E00D2801D1FFF774F9FEF75AFC16
:1047900080B220806428F9D0F4E7FFF725F8FFF70E
:1047A00061FE284D264C284EFEF74CFC80B220803E
:1047B00064283ED00C2830D124A001F070FA28489B
:1047C000FEF7D4FC2648FEF7A5FC26480068012821
:1047D0001BD1132224A1284803F007FE287088B9B2
:1047E0000021254804F0AEF82348244B2449C26830
:1047F00003F0A9FE287028B920482149026821A0A9
:1048000001F04DFA1C4804F08EF81D49144807F0D9
:1048100004FF30B121A001F042FA20880B2806D015
:1048200007E00F48FEF7A2FCFEF720FEF5E7FFF7D2
:104830007DF8D6F818010028B6D0FEF74CFDB3E796
:10484000340000201901002000802142C7EBCFC8AE
:10485000CAE4C8EBC8CFD6A4C3DCC2EB3A0A0A004C
:10486000C8B7002048000020313AC8CFD6A4C3DC26
:10487000C2EB2E747874000040C900201C01002097
:104880004C000020C8CFD6A4C3DCC2EBA3BA25736A
:104890002062723D2025640A0A000000C8CFD6A419
:1048A000C3DCC2EBCAE4C8EBB4EDCEF3A3A1A3A171
:1048B000A3A10A0A0000000070471848006870476A
:1048C00010B5044602F08EF914490C60BDE81040A2
:1048D00002F08CB910B511490868401C086001F05D
:1048E000A7FE816C491E816419B9416C816401F095
:1048F00038FFBDE8104002F014B9002802DA4FF08A
:10490000FF30704700EB4001C1EBC01040F2E731CF
:1049100001EBC000491C90FBF1F070476C120020C5
:10492000002070470020704700207047002070472B
:1049300070B5234C234D02E020688047241DAC4213
:10494000FAD370BD70B51F4C1F4D02E02068804740
:10495000241DAC42FAD370BD10B5FFF7F3FFBDE8DC
:104960001040FDF709BA1CB514200A21CDE900104A
:104970004FF400730022AFF21F0114A001F0AEFE4D
:10498000BDE81C4001F075BE10B502F02BF9FDF733
:104990007FF901F093F902F0F9F801F0F3FCFFF769
:1049A000E2FF02F0FDF800F053F801F001FD0020F5
:1049B00010BD10B502F016F9FFF7E6FF002010BD9C
:1049C0006C9A0308709A0308749A03086D61696E03
:1049D0000000000070B527E002F004F9064600F080
:1049E00051F868B32B480468A4F11405D4E9001009
:1049F0004860D4E9000108606460246001F062FD51
:104A0000A96F09B128468847284601F07DFC012896
:104A10000FD001F062FD304602F0E8F8A86A01F01C
:104A2000F1FA284601F05FFC00F02CF80028D3D101
:104A300070BD01F052FD3046BDE8704002F0D6B8BE
:104A40003046BDE8704002F0D1B8FFF7C3FFFCE785
:104A50001FB52020C2001F210F4BCDE90210CDE968
:104A600000320D4800230D4A0DA1803801F0C4FD2D
:104A700004B00948BDE81040803801F0FABD06488E
:104A80008038704703480168814201D00120704797
:104A9000002070471C130020E4D900204B4A000876
:104AA0007469646C650000002DE9F04105460E460E
:104AB0001446304601F081FE06F1140714B1012CB2
:104AC0001DD104E03946284600F0D0FD17E02C68DF
:104AD0000DE0A4F1140096F8351090F835209142BD
:104AE00004D23946143000F0C1FD02E02468AC4223
:104AF000EFD1AC4203D13946284600F0B7FD002083
:104B0000BDE8F08170B505464FF0FF340AE002F0D1
:104B100069F8064628681438046301F08CFD3046B5
:104B200002F064F8284600F0A8FD0028EFD000202D
:104B300070BD2DE9F041054616461F460A46012183
:104B4000284601F07FFB2C46143464602460AE8359
:104B50006F720020D4E710B5044604F11400FFF78B
:104B6000D1FF204601F08CFB002010BD70B50C4633
:104B700015460146012001F091FB002805D000F107
:104B80001401496009608483457270BD10B5044604
:104B900004F11400FFF7B6FF204601F0A4FB00204B
:104BA00010BD73B5044602F01DF80646A08B28B16F
:104BB000401EA083304602F019F821E0019808B3A6
:104BC00001F036FD054600202863627A294604F18B
:104BD0001400FFF769FF0198002809DD05F14C007A
:104BE00001AA0021044601F082FF204601F001FFE6
:104BF000304601F0FBFF01F0EBFB286B002800D1F1
:104C000000207CBD304601F0F1FF6FF001007CBD5B
:104C10000021C6E72DE9F0410446002501F0E2FF3E
:104C2000064604F11400074600F027FD40B1A08BB2
:104C3000401CA083304601F0D9FF012D05D006E0CD
:104C4000384600F021FD0125F4E701F0C1FB00200A
:104C500056E770B505461446012902D04FF0FF30E3
:104C600070BD01F0BFFF064605F11400FFF74AFFD3
:104C7000AC83304601F0BAFF01F0AAFB002070BD02
:104C800070B5044615460A460221204601F0DAFABC
:104C900020461430406000600120A0830020206284
:104CA000FF21A177E077657270BD10B5044604F16D
:104CB0001400FFF727FF204601F0E2FA002010BDA4
:104CC00010B50C460146022001F0E8FA00280BD08E
:104CD00000F1140149600960012181830021016212
:104CE000FF228277C177447210BD10B5044604F1EB
:104CF0001400FFF707FF204601F0F5FA002010BD71
:104D00002DE9F341044601F093FC054601F06AFFEA
:104D1000064600202863206AA84203D1E07F401C99
:104D2000E07744E0A08B50B1A08B401EA0832562A9
:104D300095F83500A077E07F401CE07737E00198D8
:104D400050B3206A95F8351090F83520914204D27E
:104D500005F13502022101F070FD627A294604F165
:104D60001400FFF7A1FE0198002809DD05F14C00B1
:104D700001AA0021074601F0BAFE384601F039FECB
:104D8000304601F033FF01F023FB286B60B109309E
:104D9000C8D0286BBDE8FC816FF001042C6330465D
:104DA00001F024FF2046F5E701F01CFF06463046DF
:104DB00001F01CFF0020EDE72DE9F041044600253D
:104DC00001F036FC064601F00DFF0746206AB042AE
:104DD00006D06C1E3463384601F008FF20468FE68B
:104DE000E17F491EC9B2E177B1B9A17F90F83520C2
:104DF000914204D004F11E02022101F01EFD04F1D3
:104E00001400064600F039FC60B1A08B401CA08362
:104E100000202062FF20A077384601F0E7FE012D38
:104E20000ED00FE060691438206290F83500A0774A
:104E3000E07F401CE077304600F026FC0125EBE7E0
:104E400001F0C6FA00205BE64FF0FF30704770B506
:104E5000054614460A460321284601F0F3F96C7210
:104E60002C461434646024600020E86170BD10B5E5
:104E7000044604F11400FFF745FE204601F000FA55
:104E8000002010BD10B50C460146032001F006FAC3
:104E9000002806D0447200F1140149600960002125
:104EA000C16110BD10B5044604F11400FFF72AFEDD
:104EB000204601F018FA002010BD2DE9F047044605
:104EC0000D464FF0FF38002D0DD0002701F08AFE6F
:104ED0008246E0692843E06104F11400814600F055
:104EE000CCFB18B128E04046BDE8F087656921E0B9
:104EF000A5F11400464690F84010CA0705D0C16BD2
:104F0000E269914309D1002607E0890705D5C16B05
:104F1000E269114001D0C16300262D6856B990F8AE
:104F20004010490703D5E169C26B9143E16101F08B
:104F300082FB01274D45DBD1504601F057FE012F82
:104F400001D101F045FA0020CEE72DE9FF470546E3
:104F5000DDF830900E4690464FF0FF30002E46D0E0
:104F6000074601F065FB04460020206301F03AFE8D
:104F700082465FEAC87005D0E86936EA000008D1C9
:104F8000002706E05FEA887003D5E869304200D068
:104F9000002777B3039868B3E66384F840806A7AA1
:104FA000214605F11400FFF77FFD0398002809DD75
:104FB00004F14C0003AA0021054601F098FD2846A3
:104FC00001F017FD504601F011FE01F001FA206BCF
:104FD00000280CD101F006FE8246B9F1000F02D084
:104FE000E06BC9F80000504601F000FE206B04B0F1
:104FF0007AE700E00DE0B9F1000F03D0E869304036
:10500000C9F800005FEA4870EDD5E869B043E8618F
:10501000E9E76FF001002063E5E770B50446012978
:1050200002D04FF0FF3070BD01F0DCFD054604F109
:105030001400FFF767FD0020E061284601F0D6FD6F
:1050400001F0C6F9002070BD2DE9F0410446069F2D
:1050500016461D460A460421204601F0F3F8677201
:105060002046143040600060E661258400206084A2
:10507000A084E08428346460246041E510B50446CF
:1050800004F11400FFF73EFD04F12800FFF73AFD9C
:10509000204601F0F5F8002010BD70B50D4616460B
:1050A0000146042001F0FAF80446200014D066728C
:1050B000143040600060A8B22084800000F024FF1B
:1050C000E06158B100206084A084E08404F12800ED
:1050D00040600060204670BD204670BD204601F053
:1050E00002F9002070BD10B5044604F11400FFF76A
:1050F00009FD04F12800FFF705FDE06900F082FFDB
:10510000204601F0F0F8002010BD2DE9F74F0446CD
:105110008B46002601F08CFA054601F063FD8046BF
:10512000608C218C6FF0020A884201D1029808B18C
:1051300000273BE0404601F059FD5046BDE8FE8F98
:105140002F630298F0B1627A294604F12800FFF734
:10515000ABFC029800280CDDFFF7AFFB064605F11B
:105160004C0002AA0021814601F0C1FC484601F032
:1051700040FC404601F03AFD01F02AF9286B30B1BD
:10518000286BDBE7404601F031FD5046D6E701F0E1
:1051900029FD80460298002808DDFFF78EFB861B5C
:1051A0000298801B0290002800DA0297608C218C04
:1051B0008842C5D0A18CE06940F821B0A08C401C89
:1051C00080B2A084218C884200D3A784608C401CCC
:1051D000608404F11400044600F04FFA20B1404608
:1051E00001F004FD0020A9E7204600F04DFA4046FA
:1051F00001F0FCFC01F0ECF800209FE7002284E7BE
:105200002DE9F74F04468B46002601F011FA0546BA
:1052100001F0E8FC8046608C6FF0010A08B9029842
:1052200008B100273CE0404601F0E0FC504685E72D
:105230002F630298F0B1627A294604F11400FFF757
:1052400033FC029800280CDDFFF737FB064605F11A
:105250004C0002AA0021814601F049FC484601F0B9
:10526000C8FB404601F0C2FC01F0B2F8286B40B127
:10527000286B63E7404601F0B9FC5046C5F830A002
:105280005CE701F0AFFC80460298002808DDFFF7DC
:1052900014FB861B0298801B0290002800DA0297FC
:1052A000608C0028C4D0E18CE06950F82100CBF874
:1052B0000000E08C401C80B2E084218C884200D346
:1052C000E784608C401E608404F12800044600F0EE
:1052D000D4F920B1404601F089FC00202EE7204699
:1052E00000F0D2F9404601F081FC01F071F8002095
:1052F00024E770B50446012902D04FF0FF3070BD9D
:1053000001F070FC054604F11400FFF7FBFB04F10B
:105310002800FFF7F7FB00206084A084E084284683
:1053200001F064FC01F054F8002070BD2DE9F0415B
:105330000446DDE9066817461D460A460521204653
:1053400000F080FF84F8098020461430406000603F
:10535000E761ED1C4FF6FC70054025842D1DB6FB62
:10536000F5F060840022A262E2622263002008E07D
:10537000218CE369091D00FB0131236B0B60216364
:10538000401C618C8142F3DCA284002060E410B5F3
:10539000044604F11400FFF7B5FB204600F070FF4F
:1053A000002010BD10B5044604F11400FFF7AAFB5D
:1053B000E06900F027FE204600F095FF002010BDB8
:1053C0002DE9F0410D4616461F460146052000F026
:1053D00065FF0446200016D06772143040600060FC
:1053E000ED1C4FF6FC7005402584B0B260842D1D85
:1053F000684300F089FDE06138B10022A262E262F8
:10540000226300200FE0204622E42046FFF7CAFF77
:1054100000201DE4218CE369091D00FB0131236B91
:105420000B602163401C618C8142F3DCA284204626
:105430000EE42DE9F04104460F461646208CB0429A
:1054400002D24FF0FF3003E401F0CCFB256BA5B195
:105450002968216301F0CAFB0020286032463946E2
:10546000281D00F069F901F0BDFB0646E06A00B1B5
:105470000560E562A06A28B105E001F0B7FB6FF0B6
:105480000200ACE4A562A08C401CA08404F11400CE
:10549000044600F0F2F820B1304601F0A7FB0020EE
:1054A0009DE4204600F0F0F8304601F09FFB00F04C
:1054B0008FFF002093E42DE9F04104460F46164685
:1054C000208CB04202D24FF0FF3088E401F08AFB1A
:1054D000256B8DB12968216301F088FB324639467E
:1054E000281D00F029F901F07DFB0646A06A28601E
:1054F000A562E06A28B105E001F078FB6FF00200D8
:105500006DE4E562A08C401CA08404F11400044604
:1055100000F0B3F820B1304601F068FB00205EE4F3
:10552000204600F0B1F8304601F060FB00F050FF7B
:10553000002054E42DE9FF5F04469146002601F067
:1055400077F8054601F04EFB0746A08C6FF0010B83
:1055500008B9039810B14FF0000840E0384601F058
:1055600045FB584604B0BDE8F09FC5F8308003986D
:10557000F0B1627A294604F11400FFF795FA039816
:1055800000280CDDFFF799F9064605F14C0003AA47
:105590000021824601F0ABFA504601F02AFA384663
:1055A00001F024FB00F014FF286B40B1286BD9E711
:1055B000384601F01BFB5846C5F830B0D2E701F081
:1055C00011FB07460398002809DDFFF776F9861BD3
:1055D0000398801B0390002801DACDF80C80A08C82
:1055E0000028C2D0A56A2868A062E06AA84201D15A
:1055F000C4F82C80A08C401EA084384601F0F6FA36
:10560000208C484500D281464A46291D019800F069
:1056100093F801F0E7FA216B2960256301F0E6FABF
:1056200000209FE770B50446012902D04FF0FF30FB
:1056300070BD01F0D7FA054604F11400FFF762FAD5
:10564000002108E00268A262E26A824200D1E162BF
:10565000226B02602063A06A0028F3D1A18428464F
:1056600001F0C4FA00F0B4FE002070BD4268116081
:1056700042684A604160086070470168814201D118
:10568000012070470020704710B50068143800F002
:10569000D2FF002010BD000010B501F0A3FA0B4AA4
:1056A0001178491C1170BDE8104001F09FBA10B587
:1056B00001F098FA054A1178491E1170BDE81040B2
:1056C00001F094BA01480078704700007012002081
:1056D00010B5FFF7F7FFFC4C08B1206810BD00F0D3
:1056E000A7FF08B1006B10BD206810BD70B504465F
:1056F000FFF7E8FFF44D08B12C6070BD00F098FF93
:1057000008B1046370BD2C6070BD10B5FFF7DAFFFF
:1057100008B1ED4810BD00F08BFF08B1303010BD6E
:10572000E94810BD10B5034649B201E003F8011B7A
:10573000521E541CFAD110BD30B5034618468B4298
:1057400007D98C189C4204D307E011F8014B03F8E9
:10575000014B521E541CF8D130BD002AFCD08C18CD
:105760009D1814F8014C05F8014C521E002AF6D180
:1057700030BD10B503461846814210D28C189C42A9
:105780000DD9991803E014F8013D01F8013D521EAE
:10579000531CF8D110BD11F8014B03F8014B521EF8
:1057A000541CF8D110BD10B5002306E003780C7826
:1057B0001B1B04D1401C491C521E002AF6D118465E
:1057C00010BD014600E0491C0A78002AFBD1081AE6
:1057D0007047F0B506460F463846FFF7F2FF05461C
:1057E000280004D03046FFF7ECFF044609E03046BD
:1057F000F0BD641E2A4639463046FFF7D4FF20B17B
:10580000761CAC42F5DA0020F0BD3046F0BD10B594
:1058100010F8012B11F8013BA2F14104192C00D81A
:105820002032A3F14104192C00D820339A4201D12F
:10583000002AEDD1D01A10BD10B5002A07D00346BA
:1058400011F9014B03F8014B14B1521EF8D110BDF0
:10585000002101E003F8011B521EFBD110BD10B561
:10586000002309E011F8013B90F90040E31A5BB214
:1058700023B9401C14B1521E002AF3D1184610BDA2
:1058800001E0401C491C90F900201AB191F9003048
:105890009A42F6D090F9000091F90010401A704732
:1058A000024600E0521C137813B1131A8B42F9D34D
:1058B000101A704770B506463046FFF782FF451C48
:1058C000284600F021FB044634B12A4631462046E2
:1058D000FFF732FF204670BD002070BD70472DE9F4
:1058E000FF4FDDE90DB60F9D6C0602D5DFF8DCA198
:1058F00003E0DFF8D8A1AAF1110AEC0601D525F0E2
:105900000105EC0702D04FF0300901E04FF020090B
:105910000027AC070BD5002A02DA2D27524206E0F9
:105920006C0701D52B2702E02C0700D52027002487
:10593000EE467AB9302201248DF800200CE00A2BC3
:1059400015D002F00F081209A4461AF80880641C4A
:105950000EF80C80002AF2D1B44200DD2646ABEBF3
:10596000060215F0110F4FF0200309D016E04FF09A
:105970000A0CB2FBFCF80CFB1828B2FBFCF2E3E7C4
:105980003FB1002A05DD521E03E0884200D80370B3
:10599000401CB2F1000CA2F10102F6DC27B18842F2
:1059A00001D80770521E401CED0605D508E088425C
:1059B00001D880F80090401C151EA2F10102F6DC0F
:1059C000302703E0884200D80770401C3546761E19
:1059D000A542F7DC05E0884202D81EF804500570A5
:1059E000401C251EA4F10104F5DC03E0884200D828
:1059F0000370401C141EA2F10102F7DC04B0BDE8E4
:105A0000F08F2DE9FF4F83B082460AEB01077F1E1E
:105A10005446A74201D24FF0FF374FF020094FF014
:105A2000250B1DE1252804D0BC4200D82070641C41
:105A300013E100250599491C059191F900002D28D5
:105A400015D02B2816D0202817D0232818D030287E
:105A500019D04FF0FF384646059A92F90020303AA7
:105A60000A2A13D205A800F098F906461AE045F074
:105A70001005DFE745F00405DCE745F00805D9E748
:105A800045F02005D6E745F00105D3E72A2809D1DE
:105A9000491C0591069840C80690002E02DA76420D
:105AA00045F01005059801782E291ED1401C05905F
:105AB00090F90010A1F130020A2A09D205A800F0DD
:105AC0006CF980460CE0000074120020FDE3000831
:105AD0002A2905D1401C0590069850F8048B0690A1
